{
    "_format": "hh-sol-artifact-1",
    "contractName": "NFTDescriptor",
    "sourceName": "contracts/NFTDescriptor.sol",
    "abi": [
        {
            "inputs": [
                {
                    "components": [
                        {
                            "internalType": "uint256",
                            "name": "tokenId",
                            "type": "uint256"
                        },
                        {
                            "internalType": "address",
                            "name": "quoteTokenAddress",
                            "type": "address"
                        },
                        {
                            "internalType": "address",
                            "name": "baseTokenAddress",
                            "type": "address"
                        },
                        {
                            "internalType": "string",
                            "name": "quoteTokenSymbol",
                            "type": "string"
                        },
                        {
                            "internalType": "string",
                            "name": "baseTokenSymbol",
                            "type": "string"
                        },
                        {
                            "internalType": "uint8",
                            "name": "quoteTokenDecimals",
                            "type": "uint8"
                        },
                        {
                            "internalType": "uint8",
                            "name": "baseTokenDecimals",
                            "type": "uint8"
                        },
                        {
                            "internalType": "bool",
                            "name": "flipRatio",
                            "type": "bool"
                        },
                        {
                            "internalType": "int24",
                            "name": "tickLower",
                            "type": "int24"
                        },
                        {
                            "internalType": "int24",
                            "name": "tickUpper",
                            "type": "int24"
                        },
                        {
                            "internalType": "int24",
                            "name": "tickCurrent",
                            "type": "int24"
                        },
                        {
                            "internalType": "int24",
                            "name": "tickSpacing",
                            "type": "int24"
                        },
                        {
                            "internalType": "uint24",
                            "name": "fee",
                            "type": "uint24"
                        },
                        {
                            "internalType": "address",
                            "name": "poolAddress",
                            "type": "address"
                        }
                    ],
                    "internalType": "struct INFTDescriptor.ConstructTokenURIParams",
                    "name": "params",
                    "type": "tuple"
                }
            ],
            "name": "constructTokenURI",
            "outputs": [
                {
                    "internalType": "string",
                    "name": "",
                    "type": "string"
                }
            ],
            "stateMutability": "pure",
            "type": "function"
        }
    ],
    "bytecode": "0x608060405234801561001057600080fd5b50615c97806100206000396000f3fe608060405234801561001057600080fd5b506004361061002b5760003560e01c8063f93a791114610030575b600080fd5b61004361003e366004613c18565b610059565b60405161005091906142db565b60405180910390f35b606060006100748361006f856101800151610166565b6103ac565b905060006100a86100888560600151610467565b6100958660800151610467565b6100a3876101a00151610603565b610619565b905060006100f66100bc866000015161064b565b6100c98760800151610467565b6100d68860200151610603565b6100e38960400151610603565b6100f18a6101800151610166565b610726565b9050600061010b6101068761075c565b610997565b905061013b848484846040516020016101279493929190613e70565b604051602081830303815290604052610997565b60405160200161014b9190614296565b6040516020818303038152906040529450505050505b919050565b606062ffffff82166101915750604080518082019091526002815261302560f01b6020820152610161565b816000805b62ffffff8316156101e15760ff8116156101b2576001016101cb565b600a62ffffff84160662ffffff166000146101cb576001015b600190910190600a62ffffff8416049250610196565b6101e9613b12565b6000600584106102de57600060046102048660ff8716610ae5565b1015610211576001610214565b60005b60ff90811691506102289085166001610ae5565b610233866005610ae5565b1061025f5761025a61024960ff86166001610ae5565b610254876005610ae5565b90610ae5565b610262565b60005b60ff851660808501819052909250610281906001906102549085610b42565b60ff90811660a085015260808401516102a89183916102a291166001610ae5565b90610b42565b60ff90811660408501526102d09082906102a2906102c99088166001610b42565b8590610b42565b60ff1660208401525061034e565b6102e9600585610ae5565b60026080840181905290915061030790600190610254908490610b42565b60ff90811660a0840152610329906103229085166002610b42565b8290610b42565b60ff166020830181905261033e906002610ae5565b60ff166040830152600160c08301525b61036d61035e8560ff8616610ae5565b62ffffff891690600a0a610b9c565b8252600160e083015260048411610385576000610390565b610390846004610ae5565b60ff1660608301526103a182610c03565b979650505050505050565b6060816103bc8460600151610467565b6103c98560800151610467565b6104028660e00151156103e1578661012001516103e8565b8661010001515b8761016001518860c001518960a001518a60e00151610e13565b61043b8760e001511561041a57876101000151610421565b8761012001515b8861016001518960c001518a60a001518b60e00151610e13565b60405160200161044f9594939291906141ca565b60405160208183030381529060405290505b92915050565b6060816000805b82518160ff1610156104cb57828160ff168151811061048957fe5b6020910101517fff0000000000000000000000000000000000000000000000000000000000000016601160f91b14156104c3576001909101905b60010161046e565b5060ff8116156105fb5760008160ff1683510167ffffffffffffffff811180156104f457600080fd5b506040519080825280601f01601f19166020018201604052801561051f576020820181803683370190505b5090506000805b84518160ff1610156105ee57848160ff168151811061054157fe5b6020910101517fff0000000000000000000000000000000000000000000000000000000000000016601160f91b14156105a357601760fa1b83838060010194508151811061058b57fe5b60200101906001600160f81b031916908160001a9053505b848160ff16815181106105b257fe5b602001015160f81c60f81b8383806001019450815181106105cf57fe5b60200101906001600160f81b031916908160001a905350600101610526565b5081945050505050610161565b509192915050565b60606104616001600160a01b0383166014610f3d565b6060838383866040516020016106329493929190613f7c565b60405160208183030381529060405290505b9392505050565b60608161067057506040805180820190915260018152600360fc1b6020820152610161565b8160005b811561068857600101600a82049150610674565b60008167ffffffffffffffff811180156106a157600080fd5b506040519080825280601f01601f1916602001820160405280156106cc576020820181803683370190505b50859350905060001982015b831561071d57600a840660300160f81b828280600190039350815181106106fb57fe5b60200101906001600160f81b031916908160001a905350600a840493506106d8565b50949350505050565b606083858484896040516020016107419594939291906140b2565b60405160208183030381529060405290505b95945050505050565b60606000604051806102a001604052806107798560200151610603565b815260200161078b8560400151610603565b8152602001846101a001516001600160a01b0316815260200184606001518152602001846080015181526020016107c6856101800151610166565b815260200184610100015160020b815260200184610120015160020b815260200184610160015160020b815260200161080f85610100015186610120015187610140015161109c565b60000b81526020018460000151815260200161083985602001516001600160a01b031660886110d3565b815260200161085685604001516001600160a01b031660886110d3565b815260200161087385602001516001600160a01b031660006110d3565b815260200161089085604001516001600160a01b031660006110d3565b81526020016108c36108b586602001516001600160a01b0316601088600001516110e2565b600060ff6010610112611102565b81526020016108f66108e886604001516001600160a01b0316601088600001516110e2565b600060ff60646101e4611102565b815260200161091b6108b586602001516001600160a01b0316602088600001516110e2565b81526020016109406108e886604001516001600160a01b0316602088600001516110e2565b81526020016109656108b586602001516001600160a01b0316603088600001516110e2565b815260200161098a6108e886604001516001600160a01b0316603088600001516110e2565b905290506106448161114a565b60608151600014156109b85750604080516020810190915260008152610161565b6000604051806060016040528060408152602001614efc604091399050600060038451600201816109e557fe5b04600402905060008160200167ffffffffffffffff81118015610a0757600080fd5b506040519080825280601f01601f191660200182016040528015610a32576020820181803683370190505b509050818152600183018586518101602084015b81831015610aa05760039283018051603f601282901c811687015160f890811b8552600c83901c8216880151811b6001860152600683901c8216880151811b60028601529116860151901b93820193909352600401610a46565b600389510660018114610aba5760028114610acb57610ad7565b613d3d60f01b600119830152610ad7565b603d60f81b6000198301525b509398975050505050505050565b600082821115610b3c576040805162461bcd60e51b815260206004820152601e60248201527f536166654d6174683a207375627472616374696f6e206f766572666c6f770000604482015290519081900360640190fd5b50900390565b600082820183811015610644576040805162461bcd60e51b815260206004820152601b60248201527f536166654d6174683a206164646974696f6e206f766572666c6f770000000000604482015290519081900360640190fd5b6000808211610bf2576040805162461bcd60e51b815260206004820152601a60248201527f536166654d6174683a206469766973696f6e206279207a65726f000000000000604482015290519081900360640190fd5b818381610bfb57fe5b049392505050565b60606000826020015160ff1667ffffffffffffffff81118015610c2557600080fd5b506040519080825280601f01601f191660200182016040528015610c50576020820181803683370190505b5090508260e0015115610c8a57602560f81b81600183510381518110610c7257fe5b60200101906001600160f81b031916908160001a9053505b8260c0015115610ce757600360fc1b81600081518110610ca657fe5b60200101906001600160f81b031916908160001a905350601760f91b81600181518110610ccf57fe5b60200101906001600160f81b031916908160001a9053505b608083015160ff165b60a0840151610d039060ff166001610b42565b811015610d3a57603060f81b828281518110610d1b57fe5b60200101906001600160f81b031916908160001a905350600101610cf0565b505b825115610461576000836060015160ff16118015610d675750826060015160ff16836040015160ff16145b15610daa5760408301805160ff600019820181169092528251601760f91b92849216908110610d9257fe5b60200101906001600160f81b031916908160001a9053505b8251610dbc90603090600a9006610b42565b60f81b818460400180518091906001900360ff1660ff1681525060ff1681518110610de357fe5b60200101906001600160f81b031916908160001a905350600a8360000181815181610e0a57fe5b04905250610d3c565b606084600281900b620d89e71981610e2757fe5b050260020b8660020b1415610e81578115610e5d576040518060400160405280600381526020016209a82b60eb1b815250610e7a565b6040518060400160405280600381526020016226a4a760e91b8152505b9050610753565b84600281900b620d89e881610e9257fe5b050260020b8660020b1415610ee8578115610ec8576040518060400160405280600381526020016226a4a760e91b815250610e7a565b5060408051808201909152600381526209a82b60eb1b6020820152610753565b6000610ef3876113c2565b90508215610f2a57610f2778010000000000000000000000000000000000000000000000006001600160a01b038316610b9c565b90505b610f358186866116f4565b915050610753565b606060008260020260020167ffffffffffffffff81118015610f5e57600080fd5b506040519080825280601f01601f191660200182016040528015610f89576020820181803683370190505b509050600360fc1b81600081518110610f9e57fe5b60200101906001600160f81b031916908160001a905350600f60fb1b81600181518110610fc757fe5b60200101906001600160f81b031916908160001a905350600160028402015b6001811115611048576f181899199a1a9b1b9c1cb0b131b232b360811b85600f166010811061101157fe5b1a60f81b82828151811061102157fe5b60200101906001600160f81b031916908160001a90535060049490941c9360001901610fe6565b508315610644576040805162461bcd60e51b815260206004820181905260248201527f537472696e67733a20686578206c656e67746820696e73756666696369656e74604482015290519081900360640190fd5b60008360020b8260020b12156110b55750600019610644565b8260020b8260020b13156110cb57506001610644565b506000610644565b606061064483831c60036118c2565b600060ff826110f1868661197c565b02816110f957fe5b06949350505050565b606061114061113b846102a2611118888a610ae5565b611135611125888a610ae5565b61112f8d8d610ae5565b90611983565b90610b9c565b61064b565b9695505050505050565b6060611155826119dc565b6111718360000151846020015185606001518660800151612060565b611188846060015185608001518660a0015161238b565b6111a68560c001518660e001518761010001518861012001516124db565b6111c66111b787610140015161064b565b8760c001518860e00151612816565b6111d98761014001518860400151612c2e565b6040516020018087805190602001908083835b6020831061120b5780518252601f1990920191602091820191016111ec565b51815160209384036101000a600019018019909216911617905289519190930192890191508083835b602083106112535780518252601f199092019160209182019101611234565b51815160209384036101000a600019018019909216911617905288519190930192880191508083835b6020831061129b5780518252601f19909201916020918201910161127c565b51815160209384036101000a600019018019909216911617905287519190930192870191508083835b602083106112e35780518252601f1990920191602091820191016112c4565b51815160209384036101000a600019018019909216911617905286519190930192860191508083835b6020831061132b5780518252601f19909201916020918201910161130c565b51815160209384036101000a600019018019909216911617905285519190930192850191508083835b602083106113735780518252601f199092019160209182019101611354565b5181516020939093036101000a6000190180199091169216919091179052651e17b9bb339f60d11b92019182525060408051808303601919018152600690920190529998505050505050505050565b60008060008360020b126113d9578260020b6113e1565b8260020b6000035b9050620d89e881111561141f576040805162461bcd60e51b81526020600482015260016024820152601560fa1b604482015290519081900360640190fd5b60006001821661143357600160801b611445565b6ffffcb933bd6fad37aa2d162d1a5940015b70ffffffffffffffffffffffffffffffffff1690506002821615611479576ffff97272373d413259a46990580e213a0260801c5b6004821615611498576ffff2e50f5f656932ef12357cf3c7fdcc0260801c5b60088216156114b7576fffe5caca7e10e4e61c3624eaa0941cd00260801c5b60108216156114d6576fffcb9843d60f6159c9db58835c9266440260801c5b60208216156114f5576fff973b41fa98c081472e6896dfb254c00260801c5b6040821615611514576fff2ea16466c96a3843ec78b326b528610260801c5b6080821615611533576ffe5dee046a99a2a811c461f1969c30530260801c5b610100821615611553576ffcbe86c7900a88aedcffc83b479aa3a40260801c5b610200821615611573576ff987a7253ac413176f2b074cf7815e540260801c5b610400821615611593576ff3392b0822b70005940c7a398e4b70f30260801c5b6108008216156115b3576fe7159475a2c29b7443b29c7fa6e889d90260801c5b6110008216156115d3576fd097f3bdfd2022b8845ad8f792aa58250260801c5b6120008216156115f3576fa9f746462d870fdf8a65dc1f90e061e50260801c5b614000821615611613576f70d869a156d2a1b890bb3df62baf32f70260801c5b618000821615611633576f31be135f97d08fd981231505542fcfa60260801c5b62010000821615611654576f09aa508b5b7a84e1c677de54f3e99bc90260801c5b62020000821615611674576e5d6af8dedb81196699c329225ee6040260801c5b62040000821615611693576d2216e584f5fa1ea926041bedfe980260801c5b620800008216156116b0576b048a170391f7dc42444e8fa20260801c5b60008460020b13156116cb5780600019816116c757fe5b0490505b6401000000008106156116df5760016116e2565b60005b60ff16602082901c0192505050919050565b60606000611703858585612ca6565b9050600061171b828368010000000000000000612da8565b90506c010000000000000000000000008210801561175c576117558272047bf19673df52e37f2410011d100000000000600160801b612da8565b9150611771565b61176e82620186a0600160801b612da8565b91505b8160005b811561178957600101600a82049150611775565b6000190160008061179a8684612e57565b9150915080156117ab576001909201915b6117b3613b12565b8515611820576117d26117ca602b60ff8716610ae5565b600790610b42565b60ff9081166020830152600260808301526117f8906001906102a290602b908816610ae5565b60ff90811660a0830152602082015161181391166001610ae5565b60ff166040820152611897565b60098460ff16106118695761183960ff85166004610ae5565b60ff166020820181905260056080830152611855906001610ae5565b60ff1660a082015260046040820152611897565b6006602082015260056040820181905261188e906001906102a29060ff881690610ae5565b60ff1660608201525b82815285151560c0820152600060e08201526118b281610c03565b9c9b505050505050505050505050565b606060008260020267ffffffffffffffff811180156118e057600080fd5b506040519080825280601f01601f19166020018201604052801561190b576020820181803683370190505b5080519091505b8015611974576f181899199a1a9b1b9c1cb0b131b232b360811b85600f166010811061193a57fe5b1a60f81b82600183038151811061194d57fe5b60200101906001600160f81b031916908160001a90535060049490941c9360001901611912565b509392505050565b1c60ff1690565b60008261199257506000610461565b8282028284828161199f57fe5b04146106445760405162461bcd60e51b815260040180806020018281038252602181526020018061511b6021913960400191505060405180910390fd5b6060611a718261016001516040516020018080614cd56081913960810182805190602001908083835b60208310611a245780518252601f199092019160209182019101611a05565b6001836020036101000a038019825116818451168082178552505050505050905001806813979f1e17b9bb339f60b91b815250600901915050604051602081830303815290604052610997565b611bdd836101e0015184610200015185610180015160405160200180806148126063913960630184805190602001908083835b60208310611ac35780518252601f199092019160209182019101611aa4565b51815160209384036101000a600019018019909216911617905265272063793d2760d01b919093019081528551600690910192860191508083835b60208310611b1d5780518252601f199092019160209182019101611afe565b51815160209384036101000a60001901801990921691161790527f2720723d273132307078272066696c6c3d272300000000000000000000000000919093019081528451601390910192850191508083835b60208310611b8e5780518252601f199092019160209182019101611b6f565b6001836020036101000a038019825116818451168082178552505050505050905001806813979f1e17b9bb339f60b91b8152506009019350505050604051602081830303815290604052610997565b611c2e846102200151856102400151866101a00151604051602001808061481260639139606301848051906020019080838360208310611ac35780518252601f199092019160209182019101611aa4565b611d4d856102600151866102800151876101c0015160405160200180806148126063913960630184805190602001908083835b60208310611c805780518252601f199092019160209182019101611c61565b51815160209384036101000a600019018019909216911617905265272063793d2760d01b919093019081528551600690910192860191508083835b60208310611cda5780518252601f199092019160209182019101611cbb565b51815160001960209485036101000a019081169019919091161790527f2720723d273130307078272066696c6c3d272300000000000000000000000000939091019283528451601390930192908501915080838360208310611b8e5780518252601f199092019160209182019101611b6f565b61016086015160405160200180605661458d8239605601602c614f3c8239651e3232b3399f60d11b602c820152603201604b614c8a8239604b0186805190602001908083835b60208310611db25780518252601f199092019160209182019101611d93565b6001836020036101000a038019825116818451168082178552505050505050905001806157c2603e9139603e0185805190602001908083835b60208310611e0a5780518252601f199092019160209182019101611deb565b6001836020036101000a03801982511681845116808217855250505050505090500180614d56603e9139603e0184805190602001908083835b60208310611e625780518252601f199092019160209182019101611e43565b5181516020939093036101000a6000190180199091169216919091179052631110179f60e11b920191825250600401603b6144858239603b0183805190602001908083835b60208310611ec65780518252601f199092019160209182019101611ea7565b6001836020036101000a038019825116818451168082178552505050505050905001806148d260999139609901607f6153738239607f01608861573a8239608801604161496b8239604101605d6158fa8239605d01607261541f823960720160496143ee823960490160be614bcc823960be01607161469e823960710160756152b6823960750160666149ac823960660160a4614f68823960a401608561580082397f3c6720636c69702d706174683d2275726c2823636f726e65727329223e00000060858201527f3c726563742066696c6c3d22000000000000000000000000000000000000000060a2820152825160ae9091019060208401908083835b60208310611fe45780518252601f199092019160209182019101611fc5565b6001836020036101000a03801982511681845116808217855250505050505090500180614a1260319139603101604e6144378239604e01605d6148758239605d016041614ebb82396041016052614d94823960520160756158858239607501955050505050506040516020818303038152906040529050919050565b60608382858488878a8960405160200180806159dd60259139602501607d614b4f8239607d0189805190602001908083835b602083106120b15780518252601f199092019160209182019101612092565b51815160209384036101000a600019018019909216911617905264010714051160dd1b919093019081528a516005909101928b0191508083835b6020831061210a5780518252601f1990920191602091820191016120eb565b6001836020036101000a03801982511681845116808217855250505050505090500180614a43607991396079016086615957823960860187805190602001908083835b6020831061216c5780518252601f19909201916020918201910161214d565b51815160209384036101000a600019018019909216911617905264010714051160dd1b919093019081528851600590910192890191508083835b602083106121c55780518252601f1990920191602091820191016121a6565b6001836020036101000a0380198251168184511680821785525050505050509050018061461960859139608501607b6155a88239607b0185805190602001908083835b602083106122275780518252601f199092019160209182019101612208565b51815160209384036101000a600019018019909216911617905264010714051160dd1b919093019081528651600590910192870191508083835b602083106122805780518252601f199092019160209182019101612261565b6001836020036101000a03801982511681845116808217855250505050505090500180614763605d9139605d0160a3615213823960a30183805190602001908083835b602083106122e25780518252601f1990920191602091820191016122c3565b51815160209384036101000a600019018019909216911617905264010714051160dd1b919093019081528451600590910192850191508083835b6020831061233b5780518252601f19909201916020918201910161231c565b6001836020036101000a03801982511681845116808217855250505050505090500180614363608b9139608b01985050505050505050506040516020818303038152906040529050949350505050565b606083838360405160200180806144c060cd913960cd0184805190602001908083835b602083106123cd5780518252601f1990920191602091820191016123ae565b6001836020036101000a03801982511681845116808217855250505050505090500180602f60f81b81525060010183805190602001908083835b602083106124265780518252601f199092019160209182019101612407565b6001836020036101000a03801982511681845116808217855250505050505090500180615b866077913960770182805190602001908083835b6020831061247e5780518252601f19909201916020918201910161245f565b5181516020939093036101000a60001901801990911692169190911790526a1e17ba32bc3a1f1e17b39f60a91b920191825250600b016073615a268239607301935050505060405160208183030381529060405290509392505050565b606060008260000b600114612555578260000b600019146125195760405180604001604052806005815260200164236e6f6e6560d81b815250612550565b6040518060400160405280600a81526020017f23666164652d646f776e000000000000000000000000000000000000000000008152505b61258c565b6040518060400160405280600881526020017f23666164652d75700000000000000000000000000000000000000000000000008152505b9050600061259b878787612ec8565b9050818183836125aa88613116565b60405160200180807f3c67206d61736b3d2275726c2800000000000000000000000000000000000000815250600d0186805190602001908083835b602083106126045780518252601f1990920191602091820191016125e5565b5181516020939093036101000a600019018019909116921691909117905261149160f11b920191825250600201607761500c823960770185805190602001908083835b602083106126665780518252601f199092019160209182019101612647565b6001836020036101000a0380198251168184511680821785525050505050509050018061470f60549139605401807f3c2f673e3c67206d61736b3d2275726c2800000000000000000000000000000081525060110184805190602001908083835b602083106126e65780518252601f1990920191602091820191016126c7565b5181516020939093036101000a600019018019909116921691909117905261149160f11b9201918252506002016029615083823960290160456150d68239604501807f3c7061746820643d22000000000000000000000000000000000000000000000081525060090183805190602001908083835b6020831061277a5780518252601f19909201916020918201910161275b565b6001836020036101000a0380198251168184511680821785525050505050509050018061532b6048913960480182805190602001908083835b602083106127d25780518252601f1990920191602091820191016127b3565b6001836020036101000a0380198251168184511680821785525050505050509050019550505050505060405160208183030381529060405292505050949350505050565b6060600061282384613581565b9050600061283084613581565b865183518251929350600490910191600a91820191016000806128538a8a61368b565b915091506128668560040160070261064b565b8b6128768660040160070261064b565b896128868760040160070261064b565b8a878760405160200180806153f2602d9139602d01806c1e3932b1ba103bb4b23a341e9160991b815250600d0189805190602001908083835b602083106128de5780518252601f1990920191602091820191016128bf565b6001836020036101000a03801982511681845116808217855250505050505090500180614de6603d9139603d01608d615a998239608d0188805190602001908083835b602083106129405780518252601f199092019160209182019101612921565b5181516020939093036101000a60001901801990911692169190911790526a1e17ba32bc3a1f1e17b39f60a91b920191825250600b01602d615c358239602d01806c1e3932b1ba103bb4b23a341e9160991b815250600d0187805190602001908083835b602083106129c35780518252601f1990920191602091820191016129a4565b6001836020036101000a03801982511681845116808217855250505050505090500180614de6603d9139603d016093614abc823960930186805190602001908083835b60208310612a255780518252601f199092019160209182019101612a06565b5181516020939093036101000a60001901801990911692169190911790526a1e17ba32bc3a1f1e17b39f60a91b920191825250600b01602d6147c08239602d01806c1e3932b1ba103bb4b23a341e9160991b815250600d0185805190602001908083835b60208310612aa85780518252601f199092019160209182019101612a89565b6001836020036101000a03801982511681845116808217855250505050505090500180614de6603d9139603d016093615623823960930184805190602001908083835b60208310612b0a5780518252601f199092019160209182019101612aeb565b6001836020036101000a03801982511681845116808217855250505050505090500180615bfd603891396038016060615b26823960600160646151af823960640160256147ed823960250183805190602001908083835b60208310612b805780518252601f199092019160209182019101612b61565b51815160209384036101000a6000190180199092169116179052630383c16160e51b919093019081528451600490910192850191508083835b60208310612bd85780518252601f199092019160209182019101612bb9565b6001836020036101000a038019825116818451168082178552505050505050905001806145e360369139603601985050505050505050506040516020818303038152906040529750505050505050509392505050565b6060612c3a8383613993565b15612c905760405160200180608d61551b8239608d01607361513c82396073016071614e4a8239607101608a6154918239608a0160846156b6823960840190506040516020818303038152906040529050610461565b5060408051602081019091526000815292915050565b600080612cc1612cbc60ff8681169086166139f6565b613a5b565b9050600081118015612cd4575060128111155b15612d95578260ff168460ff161115612d3e57612d08612cf5826002610b9c565b6001600160a01b03871690600a0a611983565b91506002810660011415612d3957612d36827003298b075b4b6a5240945790619b37fd4a600160801b612da8565b91505b612d90565b612d5f612d4c826002610b9c565b6001600160a01b03871690600a0a610b9c565b91506002810660011415612d9057612d8d82600160801b7003298b075b4b6a5240945790619b37fd4a612da8565b91505b611974565b50506001600160a01b0390921692915050565b6000808060001985870986860292508281109083900303905080612dde5760008411612dd357600080fd5b508290049050610644565b808411612dea57600080fd5b6000848688096000868103871696879004966002600389028118808a02820302808a02820302808a02820302808a02820302808a02820302808a02909103029181900381900460010186841190950394909402919094039290920491909117919091029150509392505050565b600080600060058460ff161115612e7f57612e7c8560ff600419870116600a0a610b9c565b94505b60006004600a8706119050612e9586600a610b9c565b95508015612ea4578560010195505b85620186a01415612eba57600a86049550600191505b5084925090505b9250929050565b606060008260020b85850360020b81612edd57fe5b05905060048160020b13612f28576040518060400160405280601a81526020017f4d312031433431203431203130352031303520313435203134350000000000008152509150611974565b60088160020b13612f70576040518060400160405280601981526020017f4d312031433333203439203937203131332031343520313435000000000000008152509150611974565b60108160020b13612fb8576040518060400160405280601981526020017f4d312031433333203537203839203131332031343520313435000000000000008152509150611974565b60208160020b13613000576040518060400160405280601981526020017f4d312031433235203635203831203132312031343520313435000000000000008152509150611974565b60408160020b13613048576040518060400160405280601981526020017f4d312031433137203733203733203132392031343520313435000000000000008152509150611974565b60808160020b13613090576040518060400160405280601881526020017f4d312031433920383120363520313337203134352031343500000000000000008152509150611974565b6101008160020b136130d9576040518060400160405280601a81526020017f4d31203143312038392035372e352031343520313435203134350000000000008152509150611974565b505060408051808201909152601881527f4d3120314331203937203439203134352031343520313435000000000000000060208201529392505050565b6040805180820182526002815261373360f01b6020808301919091528251808401845260038082526203139360ec1b82840152845180860186528181526232313760e81b818501528551808701909652908552620ccccd60ea1b928501929092526060939091906001600087900b148061319457508560000b600019145b1561338b578560000b600019146131ab57816131ad565b835b8660000b600019146131bf57816131c1565b835b8760000b600019146131d357836131d5565b855b8860000b600019146131e757836131e9565b855b60405160200180806b1e31b4b931b6329031bc1e9160a11b815250600c0185805190602001908083835b602083106132325780518252601f199092019160209182019101613213565b51815160209384036101000a600019018019909216911617905267383c111031bc9e9160c11b919093019081528651600890910192870191508083835b6020831061328e5780518252601f19909201916020918201910161326f565b6001836020036101000a03801982511681845116808217855250505050505090500180614e236027913960270183805190602001908083835b602083106132e65780518252601f1990920191602091820191016132c7565b51815160209384036101000a600019018019909216911617905267383c111031bc9e9160c11b919093019081528451600890910192850191508083835b602083106133425780518252601f199092019160209182019101613323565b6001836020036101000a038019825116818451168082178552505050505050905001806150ac602a9139602a019450505050506040516020818303038152906040529450613578565b8383838360405160200180806b1e31b4b931b6329031bc1e9160a11b815250600c0185805190602001908083835b602083106133d85780518252601f1990920191602091820191016133b9565b51815160209384036101000a600019018019909216911617905267383c111031bc9e9160c11b919093019081528651600890910192870191508083835b602083106134345780518252601f199092019160209182019101613415565b51815160209384036101000a60001901801990921691161790527f70782220723d22347078222066696c6c3d22776869746522202f3e0000000000919093019081526b1e31b4b931b6329031bc1e9160a11b601b8201528551602790910192860191508083835b602083106134ba5780518252601f19909201916020918201910161349b565b51815160209384036101000a600019018019909216911617905267383c111031bc9e9160c11b919093019081528451600890910192850191508083835b602083106135165780518252601f1990920191602091820191016134f7565b6001836020036101000a038019825116818451168082178552505050505050905001807f70782220723d22347078222066696c6c3d22776869746522202f3e0000000000815250601b0194505050505060405160208183030381529060405294505b50505050919050565b6060600060405180602001604052806000815250905060008360020b12156135c75782600019029250604051806040016040528060018152602001602d60f81b81525090505b806135d48460020b61064b565b6040516020018083805190602001908083835b602083106136065780518252601f1990920191602091820191016135e7565b51815160209384036101000a600019018019909216911617905285519190930192850191508083835b6020831061364e5780518252601f19909201916020918201910161362f565b6001836020036101000a03801982511681845116808217855250505050505090500192505050604051602081830303815290604052915050919050565b60608060006002858501810b0590506201869f198160020b12156136e757604051806040016040528060018152602001600760fb1b815250604051806040016040528060018152602001603760f81b8152509250925050612ec1565b61c34f198160020b121561373657604051806040016040528060018152602001600760fb1b8152506040518060400160405280600481526020016331302e3560e01b8152509250925050612ec1565b61270f198160020b121561378657604051806040016040528060018152602001600760fb1b8152506040518060400160405280600581526020016431342e323560d81b8152509250925050612ec1565b6063198160020b12156137d35760405180604001604052806002815260200161031360f41b81525060405180604001604052806002815260200161062760f31b8152509250925050612ec1565b60008160020b121561381f5760405180604001604052806002815260200161313160f01b81525060405180604001604052806002815260200161323160f01b8152509250925050612ec1565b60648160020b121561386b5760405180604001604052806002815260200161313360f01b81525060405180604001604052806002815260200161323360f01b8152509250925050612ec1565b6127108160020b12156138b85760405180604001604052806002815260200161313560f01b81525060405180604001604052806002815260200161323560f01b8152509250925050612ec1565b61c3508160020b12156139055760405180604001604052806002815260200161062760f31b81525060405180604001604052806002815260200161191b60f11b8152509250925050612ec1565b620186a08160020b12156139535760405180604001604052806002815260200161323160f01b81525060405180604001604052806002815260200161323760f01b8152509250925050612ec1565b604051806040016040528060028152602001610c8d60f21b81525060405180604001604052806002815260200161323760f01b8152509250925050612ec1565b6040805160208082018590526bffffffffffffffffffffffff19606085901b168284015282516034818403018152605490920190925280519101206000906139da84613a72565b60020260010160ff16600019816139ed57fe5b04119392505050565b6000818303818312801590613a0b5750838113155b80613a205750600083128015613a2057508381135b6106445760405162461bcd60e51b8152600401808060200182810382526024815260200180615a026024913960400191505060405180910390fd5b600080821215613a6e5781600003610461565b5090565b6000808211613a8057600080fd5b600160801b8210613a9357608091821c91015b680100000000000000008210613aab57604091821c91015b6401000000008210613abf57602091821c91015b620100008210613ad157601091821c91015b6101008210613ae257600891821c91015b60108210613af257600491821c91015b60048210613b0257600291821c91015b6002821061016157600101919050565b6040805161010081018252600080825260208201819052918101829052606081018290526080810182905260a0810182905260c0810182905260e081019190915290565b80356001600160a01b038116811461016157600080fd5b8035801515811461016157600080fd5b8035600281900b811461016157600080fd5b600082601f830112613b9f578081fd5b813567ffffffffffffffff811115613bb357fe5b613bc6601f8201601f191660200161430e565b818152846020838601011115613bda578283fd5b816020850160208301379081016020019190915292915050565b803562ffffff8116811461016157600080fd5b803560ff8116811461016157600080fd5b600060208284031215613c29578081fd5b813567ffffffffffffffff80821115613c40578283fd5b81840191506101c0808387031215613c56578384fd5b613c5f8161430e565b905082358152613c7160208401613b56565b6020820152613c8260408401613b56565b6040820152606083013582811115613c98578485fd5b613ca487828601613b8f565b606083015250608083013582811115613cbb578485fd5b613cc787828601613b8f565b608083015250613cd960a08401613c07565b60a0820152613cea60c08401613c07565b60c0820152613cfb60e08401613b6d565b60e08201526101009150613d10828401613b7d565b828201526101209150613d24828401613b7d565b828201526101409150613d38828401613b7d565b828201526101609150613d4c828401613b7d565b828201526101809150613d60828401613bf4565b828201526101a09150613d74828401613b56565b91810191909152949350505050565b60008151613d95818560208601614332565b9290920192915050565b7fe29aa0efb88f20444953434c41494d45523a204475652064696c6967656e636581527f20697320696d7065726174697665207768656e20617373657373696e6720746860208201527f6973204e46542e204d616b65207375726520746f6b656e20616464726573736560408201527f73206d617463682074686520657870656374656420746f6b656e732c2061732060608201527f746f6b656e2073796d626f6c73206d617920626520696d6974617465642e00006080820152609e0190565b632e372e3760e11b815260040190565b60007f7b226e616d65223a22000000000000000000000000000000000000000000000082528551613ea8816009850160208a01614332565b7f222c20226465736372697074696f6e223a2200000000000000000000000000006009918401918201528551613ee581601b840160208a01614332565b8551910190613efb81601b840160208901614332565b7f222c2022696d616765223a202200000000000000000000000000000000000000601b92909101918201527f646174613a696d6167652f7376672b786d6c3b6261736536342c00000000000060288201528351613f5f816042840160208801614332565b61227d60f01b604292909101918201526044019695505050505050565b60007f54686973204e465420726570726573656e74732061206c69717569646974792082527f706f736974696f6e20696e2061205761676d692056332000000000000000000060208301528551613fda816037850160208a01614332565b602d60f81b6037918401918201528551613ffb816038840160208a01614332565b660103837b7b617160cd1b603892909101918201527f546865206f776e6572206f662074686973204e46542063616e206d6f64696679603f8201527f206f722072656465656d2074686520706f736974696f6e2e5c6e000000000000605f8201527f5c6e506f6f6c20416464726573733a200000000000000000000000000000000060798201528451614095816089840160208901614332565b612e3760f11b608992909101918201526103a1608b820185613d83565b60007f20416464726573733a200000000000000000000000000000000000000000000080835287516140eb81600a860160208c01614332565b612e3760f11b600a91850191820152875161410d81600c840160208c01614332565b01600c81019190915285519061412a826016830160208a01614332565b8181019150507f5c6e46656520546965723a20000000000000000000000000000000000000000060168201528451614169816022840160208901614332565b7f5c6e546f6b656e2049443a2000000000000000000000000000000000000000006022929091019182015283516141a781602e840160208801614332565b6141bd6141b8602e83850101613e60565b613d9f565b9998505050505050505050565b60007f5761676d69202d2000000000000000000000000000000000000000000000000082528651614202816008850160208b01614332565b80830190506201016960ed1b806008830152875161422781600b850160208c01614332565b602f60f81b600b9390910192830152865161424981600c850160208b01614332565b600c920191820152845161426481600f840160208901614332565b611e1f60f11b600f92909101918201528351614287816011840160208801614332565b01601101979650505050505050565b60007f646174613a6170706c69636174696f6e2f6a736f6e3b6261736536342c000000825282516142ce81601d850160208701614332565b91909101601d0192915050565b60006020825282518060208401526142fa816040850160208701614332565b601f01601f19169190910160400192915050565b60405181810167ffffffffffffffff8111828210171561432a57fe5b604052919050565b60005b8381101561434d578181015183820152602001614335565b8381111561435c576000848401525b5050505056fe203c616e696d6174652061646469746976653d2273756d22206174747269627574654e616d653d2273746172744f6666736574222066726f6d3d2230252220746f3d22313030252220626567696e3d22307322206475723d223330732220726570656174436f756e743d22696e646566696e69746522202f3e3c2f74657874506174683e3c2f746578743e3c73746f70206f66667365743d222e39222073746f702d636f6c6f723d227768697465222073746f702d6f7061636974793d223022202f3e3c2f6c696e6561724772616469656e743e3c72656374207374796c653d2266696c7465723a2075726c28236631292220783d223070782220793d22307078222077696474683d22323930707822206865696768743d22353030707822202f3e3c6665496d61676520726573756c743d2270332220786c696e6b3a687265663d22646174613a696d6167652f7376672b786d6c3b6261736536342c3c67206d61736b3d2275726c2823666164652d73796d626f6c29223e3c726563742066696c6c3d226e6f6e652220783d223070782220793d22307078222077696474683d22323930707822206865696768743d22323030707822202f3e203c7465787420793d22373070782220783d2233327078222066696c6c3d2277686974652220666f6e742d66616d696c793d2227436f7572696572204e6577272c206d6f6e6f73706163652220666f6e742d7765696768743d223230302220666f6e742d73697a653d2233367078223e3c7376672077696474683d2232393022206865696768743d22353030222076696577426f783d2230203020323930203530302220786d6c6e733d22687474703a2f2f7777772e77332e6f72672f323030302f7376672270782c2030707829222063783d22307078222063793d223070782220723d22347078222066696c6c3d227768697465222f3e3c2f673e203c616e696d6174652061646469746976653d2273756d22206174747269627574654e616d653d2273746172744f6666736574222066726f6d3d2230252220746f3d22313030252220626567696e3d22307322206475723d223330732220726570656174436f756e743d22696e646566696e69746522202f3e203c2f74657874506174683e3c6d61736b2069643d22666164652d757022206d61736b436f6e74656e74556e6974733d226f626a656374426f756e64696e67426f78223e3c726563742077696474683d223122206865696768743d2231222066696c6c3d2275726c2823677261642d75702922202f3e3c2f6d61736b3e22207374726f6b653d227267626128302c302c302c302e332922207374726f6b652d77696474683d2233327078222066696c6c3d226e6f6e6522207374726f6b652d6c696e656361703d22726f756e6422202f3e203c616e696d6174652061646469746976653d2273756d22206174747269627574654e616d653d2273746172744f6666736574222066726f6d3d2230252220746f3d22313030252220626567696e3d22307322206475723d2233307322203c67207374796c653d227472616e73666f726d3a7472616e736c61746528323970782c20343434707829223e3c636972636c65207374796c653d227472616e73666f726d3a7472616e736c6174653364283c7376672077696474683d2732393027206865696768743d27353030272076696577426f783d2730203020323930203530302720786d6c6e733d27687474703a2f2f7777772e77332e6f72672f323030302f737667273e3c636972636c652063783d27203c67207374796c653d2266696c7465723a75726c2823746f702d726567696f6e2d626c7572293b207472616e73666f726d3a7363616c6528312e35293b207472616e73666f726d2d6f726967696e3a63656e74657220746f703b223e22202f3e3c6665426c656e64206d6f64653d226f7665726c61792220696e3d2270302220696e323d22703122202f3e3c6665426c656e64206d6f64653d226578636c7573696f6e2220696e323d22703222202f3e3c6665426c656e64206d6f64653d226f7665726c61792220696e323d2270332220726573756c743d22626c656e644f757422202f3e3c6665476175737369616e426c7572203c706174682069643d226d696e696d61702220643d224d3233342034343443323334203435372e393439203234322e323120343633203235332034363322202f3e3c6d61736b2069643d226e6f6e6522206d61736b436f6e74656e74556e6974733d226f626a656374426f756e64696e67426f78223e3c726563742077696474683d223122206865696768743d2231222066696c6c3d22776869746522202f3e3c2f6d61736b3e2220783d223070782220793d22307078222077696474683d22323930707822206865696768743d22353030707822202f3e203c616e696d6174652061646469746976653d2273756d22206174747269627574654e616d653d2273746172744f6666736574222066726f6d3d2230252220746f3d22313030252220626567696e3d22307322206475723d223330732220726570656174436f756e743d22696e646566696e69746522202f3e3c7465787420783d22313270782220793d22313770782220666f6e742d66616d696c793d2227436f7572696572204e6577272c206d6f6e6f73706163652220666f6e742d73697a653d2231327078222066696c6c3d227768697465223e3c747370616e2066696c6c3d2272676261283235352c3235352c3235352c302e3629223e4d696e205469636b3a203c2f747370616e3e3c74657874506174682073746172744f66667365743d222d31303025222066696c6c3d2277686974652220666f6e742d66616d696c793d2227436f7572696572204e6577272c206d6f6e6f73706163652220666f6e742d73697a653d22313070782220786c696e6b3a687265663d2223746578742d706174682d61223e3c6c696e6561724772616469656e742069643d22677261642d646f776e222078313d2230222078323d2231222079313d2230222079323d2231223e3c73746f70206f66667365743d22302e30222073746f702d636f6c6f723d227768697465222073746f702d6f7061636974793d223122202f3e3c73746f70206f66667365743d22302e39222073746f702d636f6c6f723d227768697465222073746f702d6f7061636974793d223022202f3e3c2f6c696e6561724772616469656e743e3c66696c7465722069643d226631223e3c6665496d61676520726573756c743d2270302220786c696e6b3a687265663d22646174613a696d6167652f7376672b786d6c3b6261736536342c3c7376672077696474683d2732393027206865696768743d27353030272076696577426f783d2730203020323930203530302720786d6c6e733d27687474703a2f2f7777772e77332e6f72672f323030302f737667273e3c726563742077696474683d27323930707827206865696768743d273530307078272066696c6c3d2723222f3e3c6665496d61676520726573756c743d2270322220786c696e6b3a687265663d22646174613a696d6167652f7376672b786d6c3b6261736536342c3c656c6c697073652063783d22353025222063793d22307078222072783d223138307078222072793d223132307078222066696c6c3d222330303022206f7061636974793d22302e383522202f3e3c2f673e707822206865696768743d2232367078222072783d22387078222072793d22387078222066696c6c3d227267626128302c302c302c302e362922202f3e70782220723d22347078222066696c6c3d22776869746522202f3e3c636972636c652063783d2231312e333437384c32342031324c31342e343334312031322e363532324c32322e333932332031384c31332e373831392031332e373831394c31382032322e333932334c31322e363532322031342e343334314c31322032344c31312e333437382031342e343334314c362032322e33393c726563742066696c6c3d226e6f6e652220783d223070782220793d22307078222077696474683d22323930707822206865696768743d22353030707822202f3e4142434445464748494a4b4c4d4e4f505152535455565758595a6162636465666768696a6b6c6d6e6f707172737475767778797a303132333435363738392b2f20786d6c6e733a786c696e6b3d27687474703a2f2f7777772e77332e6f72672f313939392f786c696e6b273e3c6c696e6561724772616469656e742069643d22677261642d73796d626f6c223e3c73746f70206f66667365743d22302e37222073746f702d636f6c6f723d227768697465222073746f702d6f7061636974793d223122202f3e3c73746f70206f66667365743d222e3935222073746f702d636f6c6f723d227768697465222073746f702d6f7061636974793d223022202f3e3c2f6c696e6561724772616469656e743e207374796c653d227472616e73666f726d3a7472616e736c61746528373270782c313839707829223e3c7265637420783d222d313670782220793d222d31367078222077696474683d22313830707822206865696768743d223138307078222066696c6c3d226e6f6e6522202f3e3c7061746820643d22207374796c653d227472616e73666f726d3a7472616e736c61746528373270782c313839707829223e70782220723d2232347078222066696c6c3d226e6f6e6522207374726f6b653d22776869746522202f3e3c7265637420783d222d313670782220793d222d31367078222077696474683d22313830707822206865696768743d223138307078222066696c6c3d226e6f6e6522202f3e536166654d6174683a206d756c7469706c69636174696f6e206f766572666c6f773c673e3c70617468207374796c653d227472616e73666f726d3a7472616e736c617465283670782c367078292220643d224d313220304c31322e3635323220392e35363538374c313820312e363037374c31332e373831392031302e323138314c32322e3339323320364c31342e34333431203c70617468207374726f6b652d6c696e656361703d22726f756e642220643d224d38203943382e30303030342032322e393439342031362e32303939203238203237203238222066696c6c3d226e6f6e6522207374726f6b653d22776869746522202f3e20726570656174436f756e743d22696e646566696e69746522202f3e3c2f74657874506174683e3c74657874506174682073746172744f66667365743d222d353025222066696c6c3d2277686974652220666f6e742d66616d696c793d2227436f7572696572204e6577272c206d6f6e6f73706163652220666f6e742d73697a653d22313070782220786c696e6b3a687265663d2223746578742d706174682d61223e3c6d61736b2069643d22666164652d646f776e22206d61736b436f6e74656e74556e6974733d226f626a656374426f756e64696e67426f78223e3c726563742077696474683d223122206865696768743d2231222066696c6c3d2275726c2823677261642d646f776e2922202f3e3c2f6d61736b3e22207374726f6b653d2272676261283235352c3235352c3235352c3129222066696c6c3d226e6f6e6522207374726f6b652d6c696e656361703d22726f756e6422202f3e3c2f673e696e3d22626c656e644f75742220737464446576696174696f6e3d22343222202f3e3c2f66696c7465723e203c636c6970506174682069643d22636f726e657273223e3c726563742077696474683d2232393022206865696768743d22353030222072783d223432222072793d22343222202f3e3c2f636c6970506174683e203c67207374796c653d227472616e73666f726d3a7472616e736c61746528323970782c20333834707829223e3c6c696e6561724772616469656e742069643d22677261642d7570222078313d2231222078323d2230222079313d2231222079323d2230223e3c73746f70206f66667365743d22302e30222073746f702d636f6c6f723d227768697465222073746f702d6f7061636974793d223122202f3e32334c31302e323138312031332e373831394c312e363037372031384c392e35363538372031322e363532324c302031324c392e35363538372031312e333437384c312e3630373720364c31302e323138312031302e323138314c3620312e363037374c31312e3334373820392e35363538374c313220305a222066696c6c3d22776869746522202f3e3c67207374796c653d227472616e73666f726d3a7472616e736c6174652832323670782c20333932707829223e3c726563742077696474683d223336707822206865696768743d2233367078222072783d22387078222072793d22387078222066696c6c3d226e6f6e6522207374726f6b653d2272676261283235352c3235352c3235352c302e322922202f3e3c74657874506174682073746172744f66667365743d22353025222066696c6c3d2277686974652220666f6e742d66616d696c793d2227436f7572696572204e6577272c206d6f6e6f73706163652220666f6e742d73697a653d22313070782220786c696e6b3a687265663d2223746578742d706174682d61223e3c7465787420783d22313270782220793d22313770782220666f6e742d66616d696c793d2227436f7572696572204e6577272c206d6f6e6f73706163652220666f6e742d73697a653d2231327078222066696c6c3d227768697465223e3c747370616e2066696c6c3d2272676261283235352c3235352c3235352c302e3629223e4d6178205469636b3a203c2f747370616e3e3c616e696d6174655472616e73666f726d206174747269627574654e616d653d227472616e73666f726d2220747970653d22726f74617465222066726f6d3d22302031382031382220746f3d2233363020313820313822206475723d223130732220726570656174436f756e743d22696e646566696e697465222f3e3c2f673e3c2f673e3c706174682069643d22746578742d706174682d612220643d224d34302031322048323530204132382032382030203020312032373820343020563436302041323820323820302030203120323530203438382048343020413238203238203020302031203132203436302056343020413238203238203020302031203430203132207a22202f3e222f3e3c6665496d61676520726573756c743d2270312220786c696e6b3a687265663d22646174613a696d6167652f7376672b786d6c3b6261736536342c3c6d61736b2069643d22666164652d73796d626f6c22206d61736b436f6e74656e74556e6974733d227573657253706163654f6e557365223e3c726563742077696474683d22323930707822206865696768743d223230307078222066696c6c3d2275726c2823677261642d73796d626f6c2922202f3e3c2f6d61736b3e3c2f646566733e3c7265637420783d22302220793d2230222077696474683d2232393022206865696768743d22353030222072783d223432222072793d223432222066696c6c3d227267626128302c302c302c302922207374726f6b653d2272676261283235352c3235352c3235352c302e322922202f3e3c2f673e3c66696c7465722069643d22746f702d726567696f6e2d626c7572223e3c6665476175737369616e426c757220696e3d22536f75726365477261706869632220737464446576696174696f6e3d22323422202f3e3c2f66696c7465723e3c2f74657874506174683e203c74657874506174682073746172744f66667365743d223025222066696c6c3d2277686974652220666f6e742d66616d696c793d2227436f7572696572204e6577272c206d6f6e6f73706163652220666f6e742d73697a653d22313070782220786c696e6b3a687265663d2223746578742d706174682d61223e3c7465787420746578742d72656e646572696e673d226f7074696d697a655370656564223e5369676e6564536166654d6174683a207375627472616374696f6e206f766572666c6f773c7265637420783d2231362220793d223136222077696474683d2232353822206865696768743d22343638222072783d223236222072793d223236222066696c6c3d227267626128302c302c302c302922207374726f6b653d2272676261283235352c3235352c3235352c302e322922202f3e3c7465787420783d22313270782220793d22313770782220666f6e742d66616d696c793d2227436f7572696572204e6577272c206d6f6e6f73706163652220666f6e742d73697a653d2231327078222066696c6c3d227768697465223e3c747370616e2066696c6c3d2272676261283235352c3235352c3235352c302e3629223e49443a203c2f747370616e3e3c726563742077696474683d223336707822206865696768743d2233367078222072783d22387078222072793d22387078222066696c6c3d226e6f6e6522207374726f6b653d2272676261283235352c3235352c3235352c302e322922202f3e3c2f746578743e3c7465787420793d2231313570782220783d2233327078222066696c6c3d2277686974652220666f6e742d66616d696c793d2227436f7572696572204e6577272c206d6f6e6f73706163652220666f6e742d7765696768743d223230302220666f6e742d73697a653d2233367078223e3c2f746578743e3c2f673e3c67207374796c653d227472616e73666f726d3a7472616e736c6174652832323670782c20343333707829223e203c67207374796c653d227472616e73666f726d3a7472616e736c61746528323970782c20343134707829223ea2646970667358221220b42251561bb4fd94849c387b0145bbacad8cb3127422550bb274abad4b20e4d164736f6c63430007060033",
    "linkReferences": {},
    "deployedLinkReferences": {}
}