{
    "_format": "hh-sol-artifact-1",
    "contractName": "NonfungibleTokenPositionDescriptor",
    "sourceName": "contracts/NonfungibleTokenPositionDescriptor.sol",
    "abi": [
        {
            "inputs": [
                {
                    "internalType": "address",
                    "name": "_WETH9",
                    "type": "address"
                },
                {
                    "internalType": "contract INFTDescriptor",
                    "name": "_descriptor",
                    "type": "address"
                }
            ],
            "stateMutability": "nonpayable",
            "type": "constructor"
        },
        {
            "anonymous": false,
            "inputs": [
                {
                    "indexed": false,
                    "internalType": "address",
                    "name": "token",
                    "type": "address"
                },
                {
                    "indexed": false,
                    "internalType": "int256",
                    "name": "priority",
                    "type": "int256"
                }
            ],
            "name": "UpdateTokenRatioPriority",
            "type": "event"
        },
        {
            "inputs": [],
            "name": "WETH9",
            "outputs": [
                {
                    "internalType": "address",
                    "name": "",
                    "type": "address"
                }
            ],
            "stateMutability": "view",
            "type": "function"
        },
        {
            "inputs": [],
            "name": "descriptor",
            "outputs": [
                {
                    "internalType": "contract INFTDescriptor",
                    "name": "",
                    "type": "address"
                }
            ],
            "stateMutability": "view",
            "type": "function"
        },
        {
            "inputs": [
                {
                    "internalType": "address",
                    "name": "token0",
                    "type": "address"
                },
                {
                    "internalType": "address",
                    "name": "token1",
                    "type": "address"
                },
                {
                    "internalType": "uint256",
                    "name": "chainId",
                    "type": "uint256"
                }
            ],
            "name": "flipRatio",
            "outputs": [
                {
                    "internalType": "bool",
                    "name": "",
                    "type": "bool"
                }
            ],
            "stateMutability": "view",
            "type": "function"
        },
        {
            "inputs": [
                {
                    "internalType": "address",
                    "name": "token",
                    "type": "address"
                },
                {
                    "internalType": "uint256",
                    "name": "chainId",
                    "type": "uint256"
                }
            ],
            "name": "tokenRatioPriority",
            "outputs": [
                {
                    "internalType": "int256",
                    "name": "",
                    "type": "int256"
                }
            ],
            "stateMutability": "view",
            "type": "function"
        },
        {
            "inputs": [
                {
                    "internalType": "contract INonfungiblePositionManager",
                    "name": "positionManager",
                    "type": "address"
                },
                {
                    "internalType": "uint256",
                    "name": "tokenId",
                    "type": "uint256"
                }
            ],
            "name": "tokenURI",
            "outputs": [
                {
                    "internalType": "string",
                    "name": "",
                    "type": "string"
                }
            ],
            "stateMutability": "view",
            "type": "function"
        }
    ],
    "bytecode": "0x60c060405234801561001057600080fd5b506040516113d53803806113d583398101604081905261002f9161004d565b6001600160601b0319606092831b8116608052911b1660a05261009e565b6000806040838503121561005f578182fd5b825161006a81610086565b602084015190925061007b81610086565b809150509250929050565b6001600160a01b038116811461009b57600080fd5b50565b60805160601c60a05160601c6113056100d06000398060f45280610497525080610118528061015d52506113056000f3fe608060405234801561001057600080fd5b50600436106100675760003560e01c80637e5af771116100505780637e5af771146100925780639d7b0ea8146100b2578063e9dc6375146100d257610067565b8063303e74df1461006c5780634aa4a4fc1461008a575b600080fd5b6100746100f2565b604051610081919061112e565b60405180910390f35b610074610116565b6100a56100a0366004610e34565b61013a565b6040516100819190611142565b6100c56100c0366004610e74565b610159565b604051610081919061114d565b6100e56100e0366004610e74565b61029e565b6040516100819190611156565b7f000000000000000000000000000000000000000000000000000000000000000081565b7f000000000000000000000000000000000000000000000000000000000000000081565b60006101468383610159565b6101508584610159565b13949350505050565b60007f00000000000000000000000000000000000000000000000000000000000000006001600160a01b0316836001600160a01b0316141561019e5750606319610298565b8160011415610294576001600160a01b03831673a0b86991c6218b36c1d19d4a2e9eb0ce3606eb4814156101d5575061012c610298565b6001600160a01b03831673dac17f958d2ee523a2206206994597c13d831ec71415610202575060c8610298565b6001600160a01b038316736b175474e89094c44da98b954eedeac495271d0f141561022f57506064610298565b6001600160a01b038316738daebade922df735c38c80c7ebd708af50815faa141561025d575060c719610298565b6001600160a01b038316732260fac5e5542a773aa44fbcfedf7c193bc2c599141561028c575061012b19610298565b506000610298565b5060005b92915050565b60606000806000806000876001600160a01b03166399fbab88886040518263ffffffff1660e01b81526004016102d4919061114d565b6101806040518083038186803b1580156102ed57600080fd5b505afa158015610301573d6000803e3d6000fd5b505050506040513d601f19601f820116820180604052508101906103259190610ff9565b505050505096509650965096509650505060006103e3896001600160a01b031663c45a01556040518163ffffffff1660e01b815260040160206040518083038186803b15801561037457600080fd5b505afa158015610388573d6000803e3d6000fd5b505050506040513d601f19601f820116820180604052508101906103ac9190610e11565b6040518060600160405280896001600160a01b03168152602001886001600160a01b031681526020018762ffffff16815250610737565b905060006103f487876100a0610833565b9050600081156104045787610406565b865b9050600082156104165787610418565b885b90506000846001600160a01b0316633850c7bd6040518163ffffffff1660e01b815260040160e06040518083038186803b15801561045557600080fd5b505afa158015610469573d6000803e3d6000fd5b505050506040513d601f19601f8201168201806040525081019061048d9190610f50565b50505050509150507f00000000000000000000000000000000000000000000000000000000000000006001600160a01b031663f93a7911604051806101c001604052808f8152602001866001600160a01b03168152602001856001600160a01b031681526020016104fd87610837565b815260200161050b86610837565b8152602001866001600160a01b031663313ce5676040518163ffffffff1660e01b815260040160206040518083038186803b15801561054957600080fd5b505afa15801561055d573d6000803e3d6000fd5b505050506040513d601f19601f820116820180604052508101906105819190610fdf565b60ff168152602001856001600160a01b031663313ce5676040518163ffffffff1660e01b815260040160206040518083038186803b1580156105c257600080fd5b505afa1580156105d6573d6000803e3d6000fd5b505050506040513d601f19601f820116820180604052508101906105fa9190610fdf565b60ff16815260200187151581526020018a60020b81526020018960020b81526020018460020b8152602001886001600160a01b031663d0c93a7c6040518163ffffffff1660e01b815260040160206040518083038186803b15801561065e57600080fd5b505afa158015610672573d6000803e3d6000fd5b505050506040513d601f19601f820116820180604052508101906106969190610e9f565b60020b81526020018b62ffffff168152602001886001600160a01b03168152506040518263ffffffff1660e01b81526004016106d29190611169565b60006040518083038186803b1580156106ea57600080fd5b505afa1580156106fe573d6000803e3d6000fd5b505050506040513d6000823e601f3d908101601f191682016040526107269190810190610eb9565b9d9c50505050505050505050505050565b600081602001516001600160a01b031682600001516001600160a01b03161061075f57600080fd5b50805160208083015160409384015184516001600160a01b0394851681850152939091168385015262ffffff166060808401919091528351808403820181526080840185528051908301207fff0000000000000000000000000000000000000000000000000000000000000060a085015294901b6bffffffffffffffffffffffff191660a183015260b58201939093527fe34f199b19b2b4f47f68442619d555527d244f78a3297ea89325f843f87b8b5460d5808301919091528251808303909101815260f5909101909152805191012090565b4690565b6060600061084c836395d89b4160e01b610871565b90508051600014156108695761086183610ac6565b91505061086c565b90505b919050565b60408051600481526024810182526020810180517bffffffffffffffffffffffffffffffffffffffffffffffffffffffff167fffffffff0000000000000000000000000000000000000000000000000000000085161781529151815160609360009384936001600160a01b03891693919290918291908083835b6020831061090a5780518252601f1990920191602091820191016108eb565b6001836020036101000a038019825116818451168082178552505050505050905001915050600060405180830381855afa9150503d806000811461096a576040519150601f19603f3d011682016040523d82523d6000602084013e61096f565b606091505b509150915081158061098057508051155b1561099e576040518060200160405280600081525092505050610298565b8051602014156109d65760008180602001905160208110156109bf57600080fd5b505190506109cc81610ad3565b9350505050610298565b604081511115610aae578080602001905160208110156109f557600080fd5b8101908080516040519392919084640100000000821115610a1557600080fd5b908301906020820185811115610a2a57600080fd5b8251640100000000811182820188101715610a4457600080fd5b82525081516020918201929091019080838360005b83811015610a71578181015183820152602001610a59565b50505050905090810190601f168015610a9e5780820380516001836020036101000a031916815260200191505b5060405250505092505050610298565b50506040805160208101909152600081529392505050565b6060610869826006610c13565b604080516020808252818301909252606091600091906020820181803683370190505090506000805b6020811015610b75576000858260208110610b1357fe5b1a60f81b90507fff00000000000000000000000000000000000000000000000000000000000000811615610b6c5780848481518110610b4e57fe5b60200101906001600160f81b031916908160001a9053506001909201915b50600101610afc565b5060008167ffffffffffffffff81118015610b8f57600080fd5b506040519080825280601f01601f191660200182016040528015610bba576020820181803683370190505b50905060005b82811015610c0a57838181518110610bd457fe5b602001015160f81c60f81b828281518110610beb57fe5b60200101906001600160f81b031916908160001a905350600101610bc0565b50949350505050565b606060028206158015610c265750600082115b8015610c33575060288211155b610c84576040805162461bcd60e51b815260206004820152601e60248201527f41646472657373537472696e675574696c3a20494e56414c49445f4c454e0000604482015290519081900360640190fd5b60008267ffffffffffffffff81118015610c9d57600080fd5b506040519080825280601f01601f191660200182016040528015610cc8576020820181803683370190505b5090506001600160a01b03841660005b60028504811015610d6c57600860138290030282901c600f600482901c1660f082168203610d0582610d76565b868560020281518110610d1457fe5b60200101906001600160f81b031916908160001a905350610d3481610d76565b868560020260010181518110610d4657fe5b60200101906001600160f81b031916908160001a9053505060019092019150610cd89050565b5090949350505050565b6000600a8260ff161015610d9157506030810160f81b61086c565b506037810160f81b61086c565b805161086c816112b7565b8051600281900b811461086c57600080fd5b80516fffffffffffffffffffffffffffffffff8116811461086c57600080fd5b805161ffff8116811461086c57600080fd5b805162ffffff8116811461086c57600080fd5b805160ff8116811461086c57600080fd5b600060208284031215610e22578081fd5b8151610e2d816112b7565b9392505050565b600080600060608486031215610e48578182fd5b8335610e53816112b7565b92506020840135610e63816112b7565b929592945050506040919091013590565b60008060408385031215610e86578182fd5b8235610e91816112b7565b946020939093013593505050565b600060208284031215610eb0578081fd5b610e2d82610da9565b600060208284031215610eca578081fd5b815167ffffffffffffffff80821115610ee1578283fd5b818401915084601f830112610ef4578283fd5b815181811115610f0057fe5b604051601f8201601f191681016020018381118282101715610f1e57fe5b604052818152838201602001871015610f35578485fd5b610f46826020830160208701611287565b9695505050505050565b600080600080600080600060e0888a031215610f6a578283fd5b8751610f75816112b7565b9650610f8360208901610da9565b9550610f9160408901610ddb565b9450610f9f60608901610ddb565b9350610fad60808901610ddb565b9250610fbb60a08901610e00565b915060c08801518015158114610fcf578182fd5b8091505092959891949750929550565b600060208284031215610ff0578081fd5b610e2d82610e00565b6000806000806000806000806000806000806101808d8f03121561101b578485fd5b8c516bffffffffffffffffffffffff81168114611036578586fd5b9b5061104460208e01610d9e565b9a5061105260408e01610d9e565b995061106060608e01610d9e565b985061106e60808e01610ded565b975061107c60a08e01610da9565b965061108a60c08e01610da9565b955061109860e08e01610dbb565b94506101008d015193506101208d015192506110b76101408e01610dbb565b91506110c66101608e01610dbb565b90509295989b509295989b509295989b565b6001600160a01b03169052565b15159052565b60020b9052565b6000815180845261110a816020860160208601611287565b601f01601f19169290920160200192915050565b62ffffff169052565b60ff169052565b6001600160a01b0391909116815260200190565b901515815260200190565b90815260200190565b600060208252610e2d60208301846110f2565b60006020825282516020830152602083015161118860408401826110d8565b50604083015161119b60608401826110d8565b5060608301516101c08060808501526111b86101e08501836110f2565b91506080850151601f198584030160a08601526111d583826110f2565b92505060a08501516111ea60c0860182611127565b5060c08501516111fd60e0860182611127565b5060e0850151610100611212818701836110e5565b8601519050610120611226868201836110eb565b860151905061014061123a868201836110eb565b860151905061016061124e868201836110eb565b8601519050610180611262868201836110eb565b86015190506101a06112768682018361111e565b8601519050610d6c858301826110d8565b60005b838110156112a257818101518382015260200161128a565b838111156112b1576000848401525b50505050565b6001600160a01b03811681146112cc57600080fd5b5056fea264697066735822122007ba3e5b259ae7daf13ff3605cbe53e39a4770558b0d42d8395e2a50e52e23f164736f6c63430007060033",
    "linkReferences": {},
    "deployedLinkReferences": {}
}