{
    "_format": "hh-sol-artifact-1",
    "contractName": "SwapRouter02",
    "sourceName": "contracts/SwapRouter02.sol",
    "abi": [
        {
            "inputs": [
                {
                    "internalType": "address",
                    "name": "_factoryV2",
                    "type": "address"
                },
                {
                    "internalType": "address",
                    "name": "factoryV3",
                    "type": "address"
                },
                {
                    "internalType": "address",
                    "name": "_positionManager",
                    "type": "address"
                },
                {
                    "internalType": "address",
                    "name": "_WETH9",
                    "type": "address"
                }
            ],
            "stateMutability": "nonpayable",
            "type": "constructor"
        },
        {
            "inputs": [],
            "name": "WETH9",
            "outputs": [
                {
                    "internalType": "address",
                    "name": "",
                    "type": "address"
                }
            ],
            "stateMutability": "view",
            "type": "function"
        },
        {
            "inputs": [
                {
                    "internalType": "address",
                    "name": "token",
                    "type": "address"
                }
            ],
            "name": "approveMax",
            "outputs": [],
            "stateMutability": "payable",
            "type": "function"
        },
        {
            "inputs": [
                {
                    "internalType": "address",
                    "name": "token",
                    "type": "address"
                }
            ],
            "name": "approveMaxMinusOne",
            "outputs": [],
            "stateMutability": "payable",
            "type": "function"
        },
        {
            "inputs": [
                {
                    "internalType": "address",
                    "name": "token",
                    "type": "address"
                }
            ],
            "name": "approveZeroThenMax",
            "outputs": [],
            "stateMutability": "payable",
            "type": "function"
        },
        {
            "inputs": [
                {
                    "internalType": "address",
                    "name": "token",
                    "type": "address"
                }
            ],
            "name": "approveZeroThenMaxMinusOne",
            "outputs": [],
            "stateMutability": "payable",
            "type": "function"
        },
        {
            "inputs": [
                {
                    "internalType": "bytes",
                    "name": "data",
                    "type": "bytes"
                }
            ],
            "name": "callPositionManager",
            "outputs": [
                {
                    "internalType": "bytes",
                    "name": "result",
                    "type": "bytes"
                }
            ],
            "stateMutability": "payable",
            "type": "function"
        },
        {
            "inputs": [
                {
                    "internalType": "bytes[]",
                    "name": "paths",
                    "type": "bytes[]"
                },
                {
                    "internalType": "uint128[]",
                    "name": "amounts",
                    "type": "uint128[]"
                },
                {
                    "internalType": "uint24",
                    "name": "maximumTickDivergence",
                    "type": "uint24"
                },
                {
                    "internalType": "uint32",
                    "name": "secondsAgo",
                    "type": "uint32"
                }
            ],
            "name": "checkOracleSlippage",
            "outputs": [],
            "stateMutability": "view",
            "type": "function"
        },
        {
            "inputs": [
                {
                    "internalType": "bytes",
                    "name": "path",
                    "type": "bytes"
                },
                {
                    "internalType": "uint24",
                    "name": "maximumTickDivergence",
                    "type": "uint24"
                },
                {
                    "internalType": "uint32",
                    "name": "secondsAgo",
                    "type": "uint32"
                }
            ],
            "name": "checkOracleSlippage",
            "outputs": [],
            "stateMutability": "view",
            "type": "function"
        },
        {
            "inputs": [
                {
                    "components": [
                        {
                            "internalType": "bytes",
                            "name": "path",
                            "type": "bytes"
                        },
                        {
                            "internalType": "address",
                            "name": "recipient",
                            "type": "address"
                        },
                        {
                            "internalType": "uint256",
                            "name": "amountIn",
                            "type": "uint256"
                        },
                        {
                            "internalType": "uint256",
                            "name": "amountOutMinimum",
                            "type": "uint256"
                        }
                    ],
                    "internalType": "struct IV3SwapRouter.ExactInputParams",
                    "name": "params",
                    "type": "tuple"
                }
            ],
            "name": "exactInput",
            "outputs": [
                {
                    "internalType": "uint256",
                    "name": "amountOut",
                    "type": "uint256"
                }
            ],
            "stateMutability": "payable",
            "type": "function"
        },
        {
            "inputs": [
                {
                    "components": [
                        {
                            "internalType": "address",
                            "name": "tokenIn",
                            "type": "address"
                        },
                        {
                            "internalType": "address",
                            "name": "tokenOut",
                            "type": "address"
                        },
                        {
                            "internalType": "uint24",
                            "name": "fee",
                            "type": "uint24"
                        },
                        {
                            "internalType": "address",
                            "name": "recipient",
                            "type": "address"
                        },
                        {
                            "internalType": "uint256",
                            "name": "amountIn",
                            "type": "uint256"
                        },
                        {
                            "internalType": "uint256",
                            "name": "amountOutMinimum",
                            "type": "uint256"
                        },
                        {
                            "internalType": "uint160",
                            "name": "sqrtPriceLimitX96",
                            "type": "uint160"
                        }
                    ],
                    "internalType": "struct IV3SwapRouter.ExactInputSingleParams",
                    "name": "params",
                    "type": "tuple"
                }
            ],
            "name": "exactInputSingle",
            "outputs": [
                {
                    "internalType": "uint256",
                    "name": "amountOut",
                    "type": "uint256"
                }
            ],
            "stateMutability": "payable",
            "type": "function"
        },
        {
            "inputs": [
                {
                    "components": [
                        {
                            "internalType": "bytes",
                            "name": "path",
                            "type": "bytes"
                        },
                        {
                            "internalType": "address",
                            "name": "recipient",
                            "type": "address"
                        },
                        {
                            "internalType": "uint256",
                            "name": "amountOut",
                            "type": "uint256"
                        },
                        {
                            "internalType": "uint256",
                            "name": "amountInMaximum",
                            "type": "uint256"
                        }
                    ],
                    "internalType": "struct IV3SwapRouter.ExactOutputParams",
                    "name": "params",
                    "type": "tuple"
                }
            ],
            "name": "exactOutput",
            "outputs": [
                {
                    "internalType": "uint256",
                    "name": "amountIn",
                    "type": "uint256"
                }
            ],
            "stateMutability": "payable",
            "type": "function"
        },
        {
            "inputs": [
                {
                    "components": [
                        {
                            "internalType": "address",
                            "name": "tokenIn",
                            "type": "address"
                        },
                        {
                            "internalType": "address",
                            "name": "tokenOut",
                            "type": "address"
                        },
                        {
                            "internalType": "uint24",
                            "name": "fee",
                            "type": "uint24"
                        },
                        {
                            "internalType": "address",
                            "name": "recipient",
                            "type": "address"
                        },
                        {
                            "internalType": "uint256",
                            "name": "amountOut",
                            "type": "uint256"
                        },
                        {
                            "internalType": "uint256",
                            "name": "amountInMaximum",
                            "type": "uint256"
                        },
                        {
                            "internalType": "uint160",
                            "name": "sqrtPriceLimitX96",
                            "type": "uint160"
                        }
                    ],
                    "internalType": "struct IV3SwapRouter.ExactOutputSingleParams",
                    "name": "params",
                    "type": "tuple"
                }
            ],
            "name": "exactOutputSingle",
            "outputs": [
                {
                    "internalType": "uint256",
                    "name": "amountIn",
                    "type": "uint256"
                }
            ],
            "stateMutability": "payable",
            "type": "function"
        },
        {
            "inputs": [],
            "name": "factory",
            "outputs": [
                {
                    "internalType": "address",
                    "name": "",
                    "type": "address"
                }
            ],
            "stateMutability": "view",
            "type": "function"
        },
        {
            "inputs": [],
            "name": "factoryV2",
            "outputs": [
                {
                    "internalType": "address",
                    "name": "",
                    "type": "address"
                }
            ],
            "stateMutability": "view",
            "type": "function"
        },
        {
            "inputs": [
                {
                    "internalType": "address",
                    "name": "token",
                    "type": "address"
                },
                {
                    "internalType": "uint256",
                    "name": "amount",
                    "type": "uint256"
                }
            ],
            "name": "getApprovalType",
            "outputs": [
                {
                    "internalType": "enum IApproveAndCall.ApprovalType",
                    "name": "",
                    "type": "uint8"
                }
            ],
            "stateMutability": "nonpayable",
            "type": "function"
        },
        {
            "inputs": [
                {
                    "components": [
                        {
                            "internalType": "address",
                            "name": "token0",
                            "type": "address"
                        },
                        {
                            "internalType": "address",
                            "name": "token1",
                            "type": "address"
                        },
                        {
                            "internalType": "uint256",
                            "name": "tokenId",
                            "type": "uint256"
                        },
                        {
                            "internalType": "uint256",
                            "name": "amount0Min",
                            "type": "uint256"
                        },
                        {
                            "internalType": "uint256",
                            "name": "amount1Min",
                            "type": "uint256"
                        }
                    ],
                    "internalType": "struct IApproveAndCall.IncreaseLiquidityParams",
                    "name": "params",
                    "type": "tuple"
                }
            ],
            "name": "increaseLiquidity",
            "outputs": [
                {
                    "internalType": "bytes",
                    "name": "result",
                    "type": "bytes"
                }
            ],
            "stateMutability": "payable",
            "type": "function"
        },
        {
            "inputs": [
                {
                    "components": [
                        {
                            "internalType": "address",
                            "name": "token0",
                            "type": "address"
                        },
                        {
                            "internalType": "address",
                            "name": "token1",
                            "type": "address"
                        },
                        {
                            "internalType": "uint24",
                            "name": "fee",
                            "type": "uint24"
                        },
                        {
                            "internalType": "int24",
                            "name": "tickLower",
                            "type": "int24"
                        },
                        {
                            "internalType": "int24",
                            "name": "tickUpper",
                            "type": "int24"
                        },
                        {
                            "internalType": "uint256",
                            "name": "amount0Min",
                            "type": "uint256"
                        },
                        {
                            "internalType": "uint256",
                            "name": "amount1Min",
                            "type": "uint256"
                        },
                        {
                            "internalType": "address",
                            "name": "recipient",
                            "type": "address"
                        }
                    ],
                    "internalType": "struct IApproveAndCall.MintParams",
                    "name": "params",
                    "type": "tuple"
                }
            ],
            "name": "mint",
            "outputs": [
                {
                    "internalType": "bytes",
                    "name": "result",
                    "type": "bytes"
                }
            ],
            "stateMutability": "payable",
            "type": "function"
        },
        {
            "inputs": [
                {
                    "internalType": "bytes32",
                    "name": "previousBlockhash",
                    "type": "bytes32"
                },
                {
                    "internalType": "bytes[]",
                    "name": "data",
                    "type": "bytes[]"
                }
            ],
            "name": "multicall",
            "outputs": [
                {
                    "internalType": "bytes[]",
                    "name": "",
                    "type": "bytes[]"
                }
            ],
            "stateMutability": "payable",
            "type": "function"
        },
        {
            "inputs": [
                {
                    "internalType": "uint256",
                    "name": "deadline",
                    "type": "uint256"
                },
                {
                    "internalType": "bytes[]",
                    "name": "data",
                    "type": "bytes[]"
                }
            ],
            "name": "multicall",
            "outputs": [
                {
                    "internalType": "bytes[]",
                    "name": "",
                    "type": "bytes[]"
                }
            ],
            "stateMutability": "payable",
            "type": "function"
        },
        {
            "inputs": [
                {
                    "internalType": "bytes[]",
                    "name": "data",
                    "type": "bytes[]"
                }
            ],
            "name": "multicall",
            "outputs": [
                {
                    "internalType": "bytes[]",
                    "name": "results",
                    "type": "bytes[]"
                }
            ],
            "stateMutability": "payable",
            "type": "function"
        },
        {
            "inputs": [],
            "name": "positionManager",
            "outputs": [
                {
                    "internalType": "address",
                    "name": "",
                    "type": "address"
                }
            ],
            "stateMutability": "view",
            "type": "function"
        },
        {
            "inputs": [
                {
                    "internalType": "address",
                    "name": "token",
                    "type": "address"
                },
                {
                    "internalType": "uint256",
                    "name": "value",
                    "type": "uint256"
                }
            ],
            "name": "pull",
            "outputs": [],
            "stateMutability": "payable",
            "type": "function"
        },
        {
            "inputs": [],
            "name": "refundETH",
            "outputs": [],
            "stateMutability": "payable",
            "type": "function"
        },
        {
            "inputs": [
                {
                    "internalType": "address",
                    "name": "token",
                    "type": "address"
                },
                {
                    "internalType": "uint256",
                    "name": "value",
                    "type": "uint256"
                },
                {
                    "internalType": "uint256",
                    "name": "deadline",
                    "type": "uint256"
                },
                {
                    "internalType": "uint8",
                    "name": "v",
                    "type": "uint8"
                },
                {
                    "internalType": "bytes32",
                    "name": "r",
                    "type": "bytes32"
                },
                {
                    "internalType": "bytes32",
                    "name": "s",
                    "type": "bytes32"
                }
            ],
            "name": "selfPermit",
            "outputs": [],
            "stateMutability": "payable",
            "type": "function"
        },
        {
            "inputs": [
                {
                    "internalType": "address",
                    "name": "token",
                    "type": "address"
                },
                {
                    "internalType": "uint256",
                    "name": "nonce",
                    "type": "uint256"
                },
                {
                    "internalType": "uint256",
                    "name": "expiry",
                    "type": "uint256"
                },
                {
                    "internalType": "uint8",
                    "name": "v",
                    "type": "uint8"
                },
                {
                    "internalType": "bytes32",
                    "name": "r",
                    "type": "bytes32"
                },
                {
                    "internalType": "bytes32",
                    "name": "s",
                    "type": "bytes32"
                }
            ],
            "name": "selfPermitAllowed",
            "outputs": [],
            "stateMutability": "payable",
            "type": "function"
        },
        {
            "inputs": [
                {
                    "internalType": "address",
                    "name": "token",
                    "type": "address"
                },
                {
                    "internalType": "uint256",
                    "name": "nonce",
                    "type": "uint256"
                },
                {
                    "internalType": "uint256",
                    "name": "expiry",
                    "type": "uint256"
                },
                {
                    "internalType": "uint8",
                    "name": "v",
                    "type": "uint8"
                },
                {
                    "internalType": "bytes32",
                    "name": "r",
                    "type": "bytes32"
                },
                {
                    "internalType": "bytes32",
                    "name": "s",
                    "type": "bytes32"
                }
            ],
            "name": "selfPermitAllowedIfNecessary",
            "outputs": [],
            "stateMutability": "payable",
            "type": "function"
        },
        {
            "inputs": [
                {
                    "internalType": "address",
                    "name": "token",
                    "type": "address"
                },
                {
                    "internalType": "uint256",
                    "name": "value",
                    "type": "uint256"
                },
                {
                    "internalType": "uint256",
                    "name": "deadline",
                    "type": "uint256"
                },
                {
                    "internalType": "uint8",
                    "name": "v",
                    "type": "uint8"
                },
                {
                    "internalType": "bytes32",
                    "name": "r",
                    "type": "bytes32"
                },
                {
                    "internalType": "bytes32",
                    "name": "s",
                    "type": "bytes32"
                }
            ],
            "name": "selfPermitIfNecessary",
            "outputs": [],
            "stateMutability": "payable",
            "type": "function"
        },
        {
            "inputs": [
                {
                    "internalType": "address",
                    "name": "token",
                    "type": "address"
                },
                {
                    "internalType": "uint256",
                    "name": "amountMinimum",
                    "type": "uint256"
                },
                {
                    "internalType": "address",
                    "name": "recipient",
                    "type": "address"
                }
            ],
            "name": "sweepToken",
            "outputs": [],
            "stateMutability": "payable",
            "type": "function"
        },
        {
            "inputs": [
                {
                    "internalType": "address",
                    "name": "token",
                    "type": "address"
                },
                {
                    "internalType": "uint256",
                    "name": "amountMinimum",
                    "type": "uint256"
                }
            ],
            "name": "sweepToken",
            "outputs": [],
            "stateMutability": "payable",
            "type": "function"
        },
        {
            "inputs": [
                {
                    "internalType": "address",
                    "name": "token",
                    "type": "address"
                },
                {
                    "internalType": "uint256",
                    "name": "amountMinimum",
                    "type": "uint256"
                },
                {
                    "internalType": "uint256",
                    "name": "feeBips",
                    "type": "uint256"
                },
                {
                    "internalType": "address",
                    "name": "feeRecipient",
                    "type": "address"
                }
            ],
            "name": "sweepTokenWithFee",
            "outputs": [],
            "stateMutability": "payable",
            "type": "function"
        },
        {
            "inputs": [
                {
                    "internalType": "address",
                    "name": "token",
                    "type": "address"
                },
                {
                    "internalType": "uint256",
                    "name": "amountMinimum",
                    "type": "uint256"
                },
                {
                    "internalType": "address",
                    "name": "recipient",
                    "type": "address"
                },
                {
                    "internalType": "uint256",
                    "name": "feeBips",
                    "type": "uint256"
                },
                {
                    "internalType": "address",
                    "name": "feeRecipient",
                    "type": "address"
                }
            ],
            "name": "sweepTokenWithFee",
            "outputs": [],
            "stateMutability": "payable",
            "type": "function"
        },
        {
            "inputs": [
                {
                    "internalType": "int256",
                    "name": "amount0Delta",
                    "type": "int256"
                },
                {
                    "internalType": "int256",
                    "name": "amount1Delta",
                    "type": "int256"
                },
                {
                    "internalType": "bytes",
                    "name": "_data",
                    "type": "bytes"
                }
            ],
            "name": "uniswapV3SwapCallback",
            "outputs": [],
            "stateMutability": "nonpayable",
            "type": "function"
        },
        {
            "inputs": [
                {
                    "internalType": "uint256",
                    "name": "amountMinimum",
                    "type": "uint256"
                },
                {
                    "internalType": "address",
                    "name": "recipient",
                    "type": "address"
                }
            ],
            "name": "unwrapWETH9",
            "outputs": [],
            "stateMutability": "payable",
            "type": "function"
        },
        {
            "inputs": [
                {
                    "internalType": "uint256",
                    "name": "amountMinimum",
                    "type": "uint256"
                }
            ],
            "name": "unwrapWETH9",
            "outputs": [],
            "stateMutability": "payable",
            "type": "function"
        },
        {
            "inputs": [
                {
                    "internalType": "uint256",
                    "name": "amountMinimum",
                    "type": "uint256"
                },
                {
                    "internalType": "address",
                    "name": "recipient",
                    "type": "address"
                },
                {
                    "internalType": "uint256",
                    "name": "feeBips",
                    "type": "uint256"
                },
                {
                    "internalType": "address",
                    "name": "feeRecipient",
                    "type": "address"
                }
            ],
            "name": "unwrapWETH9WithFee",
            "outputs": [],
            "stateMutability": "payable",
            "type": "function"
        },
        {
            "inputs": [
                {
                    "internalType": "uint256",
                    "name": "amountMinimum",
                    "type": "uint256"
                },
                {
                    "internalType": "uint256",
                    "name": "feeBips",
                    "type": "uint256"
                },
                {
                    "internalType": "address",
                    "name": "feeRecipient",
                    "type": "address"
                }
            ],
            "name": "unwrapWETH9WithFee",
            "outputs": [],
            "stateMutability": "payable",
            "type": "function"
        },
        {
            "inputs": [
                {
                    "internalType": "uint256",
                    "name": "value",
                    "type": "uint256"
                }
            ],
            "name": "wrapETH",
            "outputs": [],
            "stateMutability": "payable",
            "type": "function"
        },
        {
            "stateMutability": "payable",
            "type": "receive"
        }
    ],
    "bytecode": "0x6101006040526000196000553480156200001857600080fd5b5060405162004515380380620045158339810160408190526200003b9162000087565b6001600160601b0319606093841b811660805290831b811660a05292821b831660c052901b1660e052620000e3565b80516001600160a01b03811681146200008257600080fd5b919050565b600080600080608085870312156200009d578384fd5b620000a8856200006a565b9350620000b8602086016200006a565b9250620000c8604086016200006a565b9150620000d8606086016200006a565b905092959194509250565b60805160601c60a05160601c60c05160601c60e05160601c6143aa6200016b60003980610e4e528061123152806115265280611f56525080610e2a52508061027e52806109a35280610b375280610c225280610cbc5280610e8e5280610f79528061274e528061279452806128085250806114e352806119fb52806128e352506143aa6000f3fe60806040526004361061026e5760003560e01c8063a4a78f0c11610153578063dee00f35116100cb578063f100b2051161007f578063f2d5d56b11610064578063f2d5d56b146105eb578063f3995c67146105fe578063fa461e3314610611576102f2565b8063f100b205146105b8578063f25801a7146105cb576102f2565b8063e0e189a0116100b0578063e0e189a014610572578063e90a182f14610585578063efdeed8e14610598576102f2565b8063dee00f3514610532578063df2ab5bb1461055f576102f2565b8063b858183f11610122578063c45a015511610107578063c45a0155146104f7578063cab372ce1461050c578063d4ef38de1461051f576102f2565b8063b858183f146104d1578063c2e3140a146104e4576102f2565b8063a4a78f0c14610485578063ab3fdd5014610498578063ac9650d8146104ab578063b3a2af13146104be576102f2565b806349616997116101e65780635ae401dc116101b557806368e0d4e11161019a57806368e0d4e114610448578063791b98bc1461045d5780639b2c0a3714610472576102f2565b80635ae401dc14610422578063639d71a914610435576102f2565b806349616997146103c75780634aa4a4fc146103da5780635023b4df146103fc578063571ac8b01461040f576102f2565b80631c58db4f1161023d5780633068c554116102225780633068c5541461038e5780634659a494146103a157806349404b7c146103b4576102f2565b80631c58db4f1461035b5780631f0464d11461036e576102f2565b806304e45aaf146102f757806309b813461461032057806311ed56c91461033357806312210e8a14610353576102f2565b366102f257336001600160a01b037f000000000000000000000000000000000000000000000000000000000000000016146102f0576040805162461bcd60e51b815260206004820152600960248201527f4e6f742057455448390000000000000000000000000000000000000000000000604482015290519081900360640190fd5b005b600080fd5b61030a610305366004613b19565b610631565b6040516103179190614251565b60405180910390f35b61030a61032e366004613bb4565b61076c565b610346610341366004613c0e565b610814565b604051610317919061402a565b6102f061098f565b6102f0610369366004613d56565b6109a1565b61038161037c36600461387d565b610a18565b6040516103179190613fca565b6102f061039c3660046136ae565b610a86565b6102f06103af3660046136f7565b610a99565b6102f06103c2366004613d86565b610b33565b6102f06103d5366004613d56565b610cad565b3480156103e657600080fd5b506103ef610cba565b6040516103179190613f3e565b61030a61040a366004613bec565b610cde565b6102f061041d3660046135c1565b610da0565b61038161043036600461387d565b610db5565b6102f06104433660046135c1565b610e14565b34801561045457600080fd5b506103ef610e28565b34801561046957600080fd5b506103ef610e4c565b6102f0610480366004613db5565b610e70565b6102f06104933660046136f7565b61103a565b6102f06104a63660046135c1565b6110cb565b6103816104b9366004613752565b6110eb565b6103466104cc3660046138c7565b61122b565b61030a6104df366004613a73565b6112dc565b6102f06104f23660046136f7565b611452565b34801561050357600080fd5b506103ef6114e1565b6102f061051a3660046135c1565b6110df565b6102f061052d366004613df3565b611505565b34801561053e57600080fd5b5061055261054d3660046135e4565b611511565b604051610317919061403d565b6102f061056d36600461360f565b611639565b6102f0610580366004613650565b611711565b6102f06105933660046135e4565b611838565b3480156105a457600080fd5b506102f06105b3366004613792565b611847565b6103466105c6366004613bfd565b61187f565b3480156105d757600080fd5b506102f06105e63660046138fa565b611901565b6102f06105f93660046135e4565b611938565b6102f061060c3660046136f7565b611944565b34801561061d57600080fd5b506102f061062c36600461398e565b6119b6565b6000806000836080015114156106c8575081516040516370a0823160e01b81526001916001600160a01b0316906370a0823190610672903090600401613f3e565b60206040518083038186803b15801561068a57600080fd5b505afa15801561069e573d6000803e3d6000fd5b505050506040513d601f19601f820116820180604052508101906106c29190613d6e565b60808401525b610737836080015184606001518560c001516040518060400160405280886000015189604001518a6020015160405160200161070693929190613ebf565b6040516020818303038152906040528152602001866107255733610727565b305b6001600160a01b03169052611ac6565b91508260a001518210156107665760405162461bcd60e51b815260040161075d906140de565b60405180910390fd5b50919050565b60006107e06040830180359061078590602086016135c1565b604080518082019091526000908061079d888061425a565b8080601f01602080910402602001604051908101604052809392919081815260200183838082843760009201919091525050509082525033602090910152611c36565b505060005460608201358111156108095760405162461bcd60e51b815260040161075d9061408b565b600019600055919050565b60408051610160810190915260609061098790634418b22b60e11b908061083e60208701876135c1565b6001600160a01b0316815260200185602001602081019061085f91906135c1565b6001600160a01b0316815260200161087d6060870160408801613d3c565b62ffffff168152602001610897608087016060880161394f565b60020b81526020016108af60a087016080880161394f565b60020b81526020908101906108cf906108ca908801886135c1565b611dcf565b81526020016108ea8660200160208101906108ca91906135c1565b815260a0860135602082015260c08601356040820152606001610914610100870160e088016135c1565b6001600160a01b031681526020016000198152506040516024016109389190614159565b60408051601f198184030181529190526020810180516001600160e01b03167fffffffff000000000000000000000000000000000000000000000000000000009093169290921790915261122b565b90505b919050565b471561099f5761099f3347611e4e565b565b7f00000000000000000000000000000000000000000000000000000000000000006001600160a01b031663d0e30db0826040518263ffffffff1660e01b81526004016000604051808303818588803b1580156109fc57600080fd5b505af1158015610a10573d6000803e3d6000fd5b505050505050565b60608380600143034014610a73576040805162461bcd60e51b815260206004820152600960248201527f426c6f636b686173680000000000000000000000000000000000000000000000604482015290519081900360640190fd5b610a7d84846110eb565b95945050505050565b610a938484338585611711565b50505050565b604080516323f2ebc360e21b815233600482015230602482015260448101879052606481018690526001608482015260ff851660a482015260c4810184905260e4810183905290516001600160a01b03881691638fcbaf0c9161010480830192600092919082900301818387803b158015610b1357600080fd5b505af1158015610b27573d6000803e3d6000fd5b50505050505050505050565b60007f00000000000000000000000000000000000000000000000000000000000000006001600160a01b03166370a08231306040518263ffffffff1660e01b815260040180826001600160a01b0316815260200191505060206040518083038186803b158015610ba257600080fd5b505afa158015610bb6573d6000803e3d6000fd5b505050506040513d6020811015610bcc57600080fd5b5051905082811015610c1a576040805162461bcd60e51b8152602060048201526012602482015271496e73756666696369656e7420574554483960701b604482015290519081900360640190fd5b8015610ca8577f00000000000000000000000000000000000000000000000000000000000000006001600160a01b0316632e1a7d4d826040518263ffffffff1660e01b815260040180828152602001915050600060405180830381600087803b158015610c8657600080fd5b505af1158015610c9a573d6000803e3d6000fd5b50505050610ca88282611e4e565b505050565b610cb78133610b33565b50565b7f000000000000000000000000000000000000000000000000000000000000000081565b6000610d7a60808301803590610cf790606086016135c1565b610d0760e0860160c087016135c1565b6040518060400160405280876020016020810190610d2591906135c1565b610d3560608a0160408b01613d3c565b610d4260208b018b6135c1565b604051602001610d5493929190613ebf565b6040516020818303038152906040528152602001336001600160a01b0316815250611c36565b90508160a001358111156108095760405162461bcd60e51b815260040161075d9061408b565b610dac81600019611f3d565b610cb757600080fd5b60608380610dc1612049565b1115610a73576040805162461bcd60e51b815260206004820152601360248201527f5472616e73616374696f6e20746f6f206f6c6400000000000000000000000000604482015290519081900360640190fd5b610e1f816000611f3d565b610da057600080fd5b7f000000000000000000000000000000000000000000000000000000000000000081565b7f000000000000000000000000000000000000000000000000000000000000000081565b600082118015610e81575060648211155b610e8a57600080fd5b60007f00000000000000000000000000000000000000000000000000000000000000006001600160a01b03166370a08231306040518263ffffffff1660e01b815260040180826001600160a01b0316815260200191505060206040518083038186803b158015610ef957600080fd5b505afa158015610f0d573d6000803e3d6000fd5b505050506040513d6020811015610f2357600080fd5b5051905084811015610f71576040805162461bcd60e51b8152602060048201526012602482015271496e73756666696369656e7420574554483960701b604482015290519081900360640190fd5b8015611033577f00000000000000000000000000000000000000000000000000000000000000006001600160a01b0316632e1a7d4d826040518263ffffffff1660e01b815260040180828152602001915050600060405180830381600087803b158015610fdd57600080fd5b505af1158015610ff1573d6000803e3d6000fd5b50505050600061271061100d858461204d90919063ffffffff16565b8161101457fe5b0490508015611027576110278382611e4e565b610a1085828403611e4e565b5050505050565b60408051636eb1769f60e11b81523360048201523060248201529051600019916001600160a01b0389169163dd62ed3e91604480820192602092909190829003018186803b15801561108b57600080fd5b505afa15801561109f573d6000803e3d6000fd5b505050506040513d60208110156110b557600080fd5b50511015610a1057610a10868686868686610a99565b6110d6816000611f3d565b6110df57600080fd5b610dac81600119611f3d565b60608167ffffffffffffffff8111801561110457600080fd5b5060405190808252806020026020018201604052801561113857816020015b60608152602001906001900390816111235790505b50905060005b82811015611224576000803086868581811061115657fe5b9050602002810190611168919061425a565b604051611176929190613f12565b600060405180830381855af49150503d80600081146111b1576040519150601f19603f3d011682016040523d82523d6000602084013e6111b6565b606091505b509150915081611202576044815110156111cf57600080fd5b600481019050808060200190518101906111e99190613a09565b60405162461bcd60e51b815260040161075d919061402a565b8084848151811061120f57fe5b6020908102919091010152505060010161113e565b5092915050565b606060007f00000000000000000000000000000000000000000000000000000000000000006001600160a01b0316836040516112679190613f22565b6000604051808303816000865af19150503d80600081146112a4576040519150601f19603f3d011682016040523d82523d6000602084013e6112a9565b606091505b509250905080610766576044825110156112c257600080fd5b600482019150818060200190518101906111e99190613a09565b600080600083604001511415611387576001905060006112ff8460000151612071565b50506040516370a0823160e01b81529091506001600160a01b038216906370a0823190611330903090600401613f3e565b60206040518083038186803b15801561134857600080fd5b505afa15801561135c573d6000803e3d6000fd5b505050506040513d601f19601f820116820180604052508101906113809190613d6e565b6040850152505b6000816113945733611396565b305b90505b60006113a885600001516120a2565b90506113f48560400151826113c15786602001516113c3565b305b600060405180604001604052806113dd8b600001516120aa565b8152602001876001600160a01b0316815250611ac6565b6040860152801561141457845130925061140d906120b9565b8552611421565b8460400151935050611427565b50611399565b836060015183101561144b5760405162461bcd60e51b815260040161075d906140de565b5050919050565b60408051636eb1769f60e11b8152336004820152306024820152905186916001600160a01b0389169163dd62ed3e91604480820192602092909190829003018186803b1580156114a157600080fd5b505afa1580156114b5573d6000803e3d6000fd5b505050506040513d60208110156114cb57600080fd5b50511015610a1057610a10868686868686611944565b7f000000000000000000000000000000000000000000000000000000000000000081565b610ca883338484610e70565b600081836001600160a01b031663dd62ed3e307f00000000000000000000000000000000000000000000000000000000000000006040518363ffffffff1660e01b8152600401611562929190613f52565b60206040518083038186803b15801561157a57600080fd5b505afa15801561158e573d6000803e3d6000fd5b505050506040513d601f19601f820116820180604052508101906115b29190613d6e565b106115bf57506000611633565b6115cb83600019611f3d565b156115d857506001611633565b6115e483600119611f3d565b156115f157506002611633565b6115fc836000611f3d565b61160557600080fd5b61161183600019611f3d565b1561161e57506003611633565b61162a83600119611f3d565b156102f2575060045b92915050565b6000836001600160a01b03166370a08231306040518263ffffffff1660e01b815260040180826001600160a01b0316815260200191505060206040518083038186803b15801561168857600080fd5b505afa15801561169c573d6000803e3d6000fd5b505050506040513d60208110156116b257600080fd5b5051905082811015611700576040805162461bcd60e51b815260206004820152601260248201527124b739bab33334b1b4b2b73a103a37b5b2b760711b604482015290519081900360640190fd5b8015610a9357610a938483836120d0565b600082118015611722575060648211155b61172b57600080fd5b6000856001600160a01b03166370a08231306040518263ffffffff1660e01b815260040180826001600160a01b0316815260200191505060206040518083038186803b15801561177a57600080fd5b505afa15801561178e573d6000803e3d6000fd5b505050506040513d60208110156117a457600080fd5b50519050848110156117f2576040805162461bcd60e51b815260206004820152601260248201527124b739bab33334b1b4b2b73a103a37b5b2b760711b604482015290519081900360640190fd5b8015610a10576000612710611807838661204d565b8161180e57fe5b0490508015611822576118228784836120d0565b61182f87868385036120d0565b50505050505050565b611843828233611639565b5050565b600080611855868685612217565b915091508362ffffff1681830312610a105760405162461bcd60e51b815260040161075d906140c2565b606061098763219f5d1760e01b6040518060c00160405280856040013581526020016118b78660000160208101906108ca91906135c1565b81526020016118d28660200160208101906108ca91906135c1565b815260200185606001358152602001856080013581526020016000198152506040516024016109389190614115565b60008061190e858461240f565b915091508362ffffff16818303126110335760405162461bcd60e51b815260040161075d906140c2565b611843823330846125e6565b6040805163d505accf60e01b8152336004820152306024820152604481018790526064810186905260ff8516608482015260a4810184905260c4810183905290516001600160a01b0388169163d505accf9160e480830192600092919082900301818387803b158015610b1357600080fd5b60008413806119c55750600083135b6119ce57600080fd5b60006119dc82840184613c20565b905060008060006119f08460000151612071565b925092509250611a227f0000000000000000000000000000000000000000000000000000000000000000848484612736565b5060008060008a13611a4957846001600160a01b0316846001600160a01b03161089611a60565b836001600160a01b0316856001600160a01b0316108a5b915091508115611a7f57611a7a858760200151338461274c565b610b27565b8551611a8a906120a2565b15611aaf578551611a9a906120b9565b8652611aa98133600089611c36565b50610b27565b80600081905550610b27848760200151338461274c565b60006001600160a01b03841660011415611ae257339350611af8565b6001600160a01b03841660021415611af8573093505b6000806000611b0a8560000151612071565b919450925090506001600160a01b0380831690841610600080611b2e8686866128dc565b6001600160a01b031663128acb088b85611b478f61291a565b6001600160a01b038e1615611b5c578d611b82565b87611b7b5773fffd8963efd1fc6a506488495d951d5263988d25611b82565b6401000276a45b8d604051602001611b939190614207565b6040516020818303038152906040526040518663ffffffff1660e01b8152600401611bc2959493929190613f6c565b6040805180830381600087803b158015611bdb57600080fd5b505af1158015611bef573d6000803e3d6000fd5b505050506040513d601f19601f82011682018060405250810190611c13919061396b565b9150915082611c225781611c24565b805b6000039b9a5050505050505050505050565b60006001600160a01b03841660011415611c5257339350611c68565b6001600160a01b03841660021415611c68573093505b6000806000611c7a8560000151612071565b919450925090506001600160a01b0380841690831610600080611c9e8587866128dc565b6001600160a01b031663128acb088b85611cb78f61291a565b6000036001600160a01b038e1615611ccf578d611cf5565b87611cee5773fffd8963efd1fc6a506488495d951d5263988d25611cf5565b6401000276a45b8d604051602001611d069190614207565b6040516020818303038152906040526040518663ffffffff1660e01b8152600401611d35959493929190613f6c565b6040805180830381600087803b158015611d4e57600080fd5b505af1158015611d62573d6000803e3d6000fd5b505050506040513d601f19601f82011682018060405250810190611d86919061396b565b91509150600083611d9b578183600003611da1565b82826000035b90985090506001600160a01b038a16611dc0578b8114611dc057600080fd5b50505050505050949350505050565b6040516370a0823160e01b81526000906001600160a01b038316906370a0823190611dfe903090600401613f3e565b60206040518083038186803b158015611e1657600080fd5b505afa158015611e2a573d6000803e3d6000fd5b505050506040513d601f19601f820116820180604052508101906109879190613d6e565b604080516000808252602082019092526001600160a01b0384169083906040518082805190602001908083835b60208310611e9a5780518252601f199092019160209182019101611e7b565b6001836020036101000a03801982511681845116808217855250505050505090500191505060006040518083038185875af1925050503d8060008114611efc576040519150601f19603f3d011682016040523d82523d6000602084013e611f01565b606091505b5050905080610ca8576040805162461bcd60e51b815260206004820152600360248201526253544560e81b604482015290519081900360640190fd5b6000806000846001600160a01b031663095ea7b360e01b7f000000000000000000000000000000000000000000000000000000000000000086604051602401611f87929190613fb1565b60408051601f198184030181529181526020820180516001600160e01b03167fffffffff00000000000000000000000000000000000000000000000000000000909416939093179092529051611fdd9190613f22565b6000604051808303816000865af19150503d806000811461201a576040519150601f19603f3d011682016040523d82523d6000602084013e61201f565b606091505b5091509150818015610a7d575080511580610a7d575080806020019051810190610a7d9190613863565b4290565b60008215806120685750508181028183828161206557fe5b04145b61163357600080fd5b6000808061207f8482612930565b925061208c8460146129fc565b9050612099846017612930565b91509193909250565b516042111590565b6060610987826000602b612ab8565b805160609061098790839060179060161901612ab8565b604080516001600160a01b038481166024830152604480830185905283518084039091018152606490920183526020820180516001600160e01b031663a9059cbb60e01b1781529251825160009485949389169392918291908083835b6020831061214c5780518252601f19909201916020918201910161212d565b6001836020036101000a0380198251168184511680821785525050505050509050019150506000604051808303816000865af19150503d80600081146121ae576040519150601f19603f3d011682016040523d82523d6000602084013e6121b3565b606091505b50915091508180156121e15750805115806121e157508080602001905160208110156121de57600080fd5b50515b611033576040805162461bcd60e51b815260206004820152600260248201526114d560f21b604482015290519081900360640190fd5b600080835185511461222857600080fd5b6000855167ffffffffffffffff8111801561224257600080fd5b5060405190808252806020026020018201604052801561227c57816020015b61226961342a565b8152602001906001900390816122615790505b5090506000865167ffffffffffffffff8111801561229957600080fd5b506040519080825280602002602001820160405280156122d357816020015b6122c061342a565b8152602001906001900390816122b85790505b50905060005b87518110156123e8576000806123028a84815181106122f457fe5b60200260200101518961240f565b9150915061230f82612c15565b85848151811061231b57fe5b60200260200101516000019060020b908160020b8152505061233c81612c15565b84848151811061234857fe5b60200260200101516000019060020b908160020b8152505088838151811061236c57fe5b602002602001015185848151811061238057fe5b6020026020010151602001906001600160801b031690816001600160801b0316815250508883815181106123b057fe5b60200260200101518484815181106123c457fe5b6020908102919091018101516001600160801b0390921691015250506001016122d9565b506123f282612c26565b60020b935061240081612c26565b60020b92505050935093915050565b60008060008061241e86612cde565b90506000805b828110156125c757600080600061243a8b612071565b925092509250600061244d8484846128dc565b905060008063ffffffff8d166124765761246683612ceb565b600291820b9350900b905061250b565b612480838e612f28565b8160020b91505080925050826001600160a01b0316633850c7bd6040518163ffffffff1660e01b815260040160e06040518083038186803b1580156124c457600080fd5b505afa1580156124d8573d6000803e3d6000fd5b505050506040513d601f19601f820116820180604052508101906124fc9190613cb0565b50505060029290920b93505050505b6001890387141561253257846001600160a01b0316866001600160a01b0316109950612541565b61253b8e6120b9565b9d508597505b60008715806125945750866001600160a01b0316896001600160a01b03161061257e57866001600160a01b0316866001600160a01b031610612594565b856001600160a01b0316876001600160a01b0316105b905080156125a9579b82019b9a81019a6125b4565b828d039c50818c039b505b5050600190950194506124249350505050565b50826125dc5760001985029450600019840293505b5050509250929050565b604080516001600160a01b0385811660248301528481166044830152606480830185905283518084039091018152608490920183526020820180516001600160e01b03166323b872dd60e01b178152925182516000948594938a169392918291908083835b6020831061266a5780518252601f19909201916020918201910161264b565b6001836020036101000a0380198251168184511680821785525050505050509050019150506000604051808303816000865af19150503d80600081146126cc576040519150601f19603f3d011682016040523d82523d6000602084013e6126d1565b606091505b50915091508180156126ff5750805115806126ff57508080602001905160208110156126fc57600080fd5b50515b610a10576040805162461bcd60e51b815260206004820152600360248201526229aa2360e91b604482015290519081900360640190fd5b6000610a7d856127478686866132b5565b61330b565b7f00000000000000000000000000000000000000000000000000000000000000006001600160a01b0316846001600160a01b031614801561278d5750804710155b156128af577f00000000000000000000000000000000000000000000000000000000000000006001600160a01b031663d0e30db0826040518263ffffffff1660e01b81526004016000604051808303818588803b1580156127ed57600080fd5b505af1158015612801573d6000803e3d6000fd5b50505050507f00000000000000000000000000000000000000000000000000000000000000006001600160a01b031663a9059cbb83836040518363ffffffff1660e01b815260040180836001600160a01b0316815260200182815260200192505050602060405180830381600087803b15801561287d57600080fd5b505af1158015612891573d6000803e3d6000fd5b505050506040513d60208110156128a757600080fd5b50610a939050565b6001600160a01b0383163014156128d0576128cb8483836120d0565b610a93565b610a93848484846125e6565b60006129127f000000000000000000000000000000000000000000000000000000000000000061290d8686866132b5565b61332e565b949350505050565b6000600160ff1b821061292c57600080fd5b5090565b60008182601401101561298a576040805162461bcd60e51b815260206004820152601260248201527f746f416464726573735f6f766572666c6f770000000000000000000000000000604482015290519081900360640190fd5b81601401835110156129e3576040805162461bcd60e51b815260206004820152601560248201527f746f416464726573735f6f75744f66426f756e64730000000000000000000000604482015290519081900360640190fd5b5001602001516c01000000000000000000000000900490565b600081826003011015612a56576040805162461bcd60e51b815260206004820152601160248201527f746f55696e7432345f6f766572666c6f77000000000000000000000000000000604482015290519081900360640190fd5b8160030183511015612aaf576040805162461bcd60e51b815260206004820152601460248201527f746f55696e7432345f6f75744f66426f756e6473000000000000000000000000604482015290519081900360640190fd5b50016003015190565b60608182601f011015612b03576040805162461bcd60e51b815260206004820152600e60248201526d736c6963655f6f766572666c6f7760901b604482015290519081900360640190fd5b828284011015612b4b576040805162461bcd60e51b815260206004820152600e60248201526d736c6963655f6f766572666c6f7760901b604482015290519081900360640190fd5b81830184511015612ba3576040805162461bcd60e51b815260206004820152601160248201527f736c6963655f6f75744f66426f756e6473000000000000000000000000000000604482015290519081900360640190fd5b606082158015612bc25760405191506000825260208201604052612c0c565b6040519150601f8416801560200281840101858101878315602002848b0101015b81831015612bfb578051835260209283019201612be3565b5050858452601f01601f1916604052505b50949350505050565b80600281900b811461098a57600080fd5b6000806000805b8451811015612ca957848181518110612c4257fe5b6020026020010151602001516001600160801b0316858281518110612c6357fe5b60200260200101516000015160020b0283019250848181518110612c8357fe5b6020026020010151602001516001600160801b0316820191508080600101915050612c2d565b50808281612cb357fe5b059250600082128015612cce5750808281612cca57fe5b0715155b1561144b57505060001901919050565b5160176013199091010490565b600080600080846001600160a01b0316633850c7bd6040518163ffffffff1660e01b815260040160e06040518083038186803b158015612d2a57600080fd5b505afa158015612d3e573d6000803e3d6000fd5b505050506040513d601f19601f82011682018060405250810190612d629190613cb0565b50939750919550935050600161ffff8416119150612d9490505760405162461bcd60e51b815260040161075d9061406e565b600080866001600160a01b031663252c09d7856040518263ffffffff1660e01b8152600401612dc39190614242565b60806040518083038186803b158015612ddb57600080fd5b505afa158015612def573d6000803e3d6000fd5b505050506040513d601f19601f82011682018060405250810190612e139190613e20565b505091509150612e21612049565b63ffffffff168263ffffffff1614612e3b57849550612f1f565b60008361ffff1660018561ffff168761ffff16010381612e5757fe5b06905060008060008a6001600160a01b031663252c09d7856040518263ffffffff1660e01b8152600401612e8b9190614251565b60806040518083038186803b158015612ea357600080fd5b505afa158015612eb7573d6000803e3d6000fd5b505050506040513d601f19601f82011682018060405250810190612edb9190613e20565b9350509250925080612eff5760405162461bcd60e51b815260040161075d90614051565b82860363ffffffff811683870360060b81612f1657fe5b059a5050505050505b50505050915091565b60008063ffffffff8316612f68576040805162461bcd60e51b8152602060048201526002602482015261042560f41b604482015290519081900360640190fd5b6040805160028082526060820183526000926020830190803683370190505090508381600081518110612f9757fe5b602002602001019063ffffffff16908163ffffffff1681525050600081600181518110612fc057fe5b63ffffffff90921660209283029190910182015260405163883bdbfd60e01b81526004810182815283516024830152835160009384936001600160a01b038b169363883bdbfd9388939192839260449091019185820191028083838b5b8381101561303557818101518382015260200161301d565b505050509050019250505060006040518083038186803b15801561305857600080fd5b505afa15801561306c573d6000803e3d6000fd5b505050506040513d6000823e601f3d908101601f19168201604090815281101561309557600080fd5b81019080805160405193929190846401000000008211156130b557600080fd5b9083019060208201858111156130ca57600080fd5b82518660208202830111640100000000821117156130e757600080fd5b82525081516020918201928201910280838360005b838110156131145781810151838201526020016130fc565b505050509050016040526020018051604051939291908464010000000082111561313d57600080fd5b90830190602082018581111561315257600080fd5b825186602082028301116401000000008211171561316f57600080fd5b82525081516020918201928201910280838360005b8381101561319c578181015183820152602001613184565b50505050905001604052505050915091506000826000815181106131bc57fe5b6020026020010151836001815181106131d157fe5b60200260200101510390506000826000815181106131eb57fe5b60200260200101518360018151811061320057fe5b60200260200101510390508763ffffffff168260060b8161321d57fe5b05965060008260060b12801561324757508763ffffffff168260060b8161324057fe5b0760060b15155b1561325457600019909601955b63ffffffff88166001600160a01b030277ffffffffffffffffffffffffffffffffffffffff00000000602083901b1677ffffffffffffffffffffffffffffffffffffffffffffffff8216816132a557fe5b0496505050505050509250929050565b6132bd613441565b826001600160a01b0316846001600160a01b031611156132db579192915b50604080516060810182526001600160a01b03948516815292909316602083015262ffffff169181019190915290565b6000613317838361332e565b9050336001600160a01b0382161461163357600080fd5b600081602001516001600160a01b031682600001516001600160a01b03161061335657600080fd5b50805160208083015160409384015184516001600160a01b0394851681850152939091168385015262ffffff166060808401919091528351808403820181526080840185528051908301207fff0000000000000000000000000000000000000000000000000000000000000060a085015294901b6bffffffffffffffffffffffff191660a183015260b58201939093527fe34f199b19b2b4f47f68442619d555527d244f78a3297ea89325f843f87b8b5460d5808301919091528251808303909101815260f5909101909152805191012090565b604080518082019091526000808252602082015290565b604080516060810182526000808252602082018190529181019190915290565b803561098a8161432f565b60008083601f84011261347d578182fd5b50813567ffffffffffffffff811115613494578182fd5b60208301915083602080830285010111156134ae57600080fd5b9250929050565b600082601f8301126134c5578081fd5b813560206134da6134d5836142c3565b61429f565b82815281810190858301838502870184018810156134f6578586fd5b855b858110156135285781356001600160801b0381168114613516578788fd5b845292840192908401906001016134f8565b5090979650505050505050565b8051801515811461098a57600080fd5b600082601f830112613555578081fd5b81356135636134d5826142e1565b818152846020838601011115613577578283fd5b816020850160208301379081016020019190915292915050565b805161ffff8116811461098a57600080fd5b803562ffffff8116811461098a57600080fd5b803561098a81614353565b6000602082840312156135d2578081fd5b81356135dd8161432f565b9392505050565b600080604083850312156135f6578081fd5b82356136018161432f565b946020939093013593505050565b600080600060608486031215613623578081fd5b833561362e8161432f565b92506020840135915060408401356136458161432f565b809150509250925092565b600080600080600060a08688031215613667578283fd5b85356136728161432f565b94506020860135935060408601356136898161432f565b92506060860135915060808601356136a08161432f565b809150509295509295909350565b600080600080608085870312156136c3578182fd5b84356136ce8161432f565b9350602085013592506040850135915060608501356136ec8161432f565b939692955090935050565b60008060008060008060c0878903121561370f578384fd5b863561371a8161432f565b95506020870135945060408701359350606087013561373881614365565b9598949750929560808101359460a0909101359350915050565b60008060208385031215613764578182fd5b823567ffffffffffffffff81111561377a578283fd5b6137868582860161346c565b90969095509350505050565b600080600080608085870312156137a7578182fd5b843567ffffffffffffffff808211156137be578384fd5b818701915087601f8301126137d1578384fd5b813560206137e16134d5836142c3565b82815281810190858301885b85811015613816576138048e8684358b0101613545565b845292840192908401906001016137ed565b5090995050508801359250508082111561382e578384fd5b5061383b878288016134b5565b93505061384a604086016135a3565b9150613858606086016135b6565b905092959194509250565b600060208284031215613874578081fd5b6135dd82613535565b600080600060408486031215613891578081fd5b83359250602084013567ffffffffffffffff8111156138ae578182fd5b6138ba8682870161346c565b9497909650939450505050565b6000602082840312156138d8578081fd5b813567ffffffffffffffff8111156138ee578182fd5b61291284828501613545565b60008060006060848603121561390e578081fd5b833567ffffffffffffffff811115613924578182fd5b61393086828701613545565b93505061393f602085016135a3565b9150604084013561364581614353565b600060208284031215613960578081fd5b81356135dd81614344565b6000806040838503121561397d578182fd5b505080516020909101519092909150565b600080600080606085870312156139a3578182fd5b8435935060208501359250604085013567ffffffffffffffff808211156139c8578384fd5b818701915087601f8301126139db578384fd5b8135818111156139e9578485fd5b8860208285010111156139fa578485fd5b95989497505060200194505050565b600060208284031215613a1a578081fd5b815167ffffffffffffffff811115613a30578182fd5b8201601f81018413613a40578182fd5b8051613a4e6134d5826142e1565b818152856020838501011115613a62578384fd5b610a7d826020830160208601614303565b600060208284031215613a84578081fd5b813567ffffffffffffffff80821115613a9b578283fd5b9083019060808286031215613aae578283fd5b604051608081018181108382111715613ac357fe5b604052823582811115613ad4578485fd5b613ae087828601613545565b82525060208301359150613af38261432f565b816020820152604083013560408201526060830135606082015280935050505092915050565b600060e08284031215613b2a578081fd5b60405160e0810181811067ffffffffffffffff82111715613b4757fe5b604052613b5383613461565b8152613b6160208401613461565b6020820152613b72604084016135a3565b6040820152613b8360608401613461565b60608201526080830135608082015260a083013560a0820152613ba860c08401613461565b60c08201529392505050565b600060208284031215613bc5578081fd5b813567ffffffffffffffff811115613bdb578182fd5b8201608081850312156135dd578182fd5b600060e08284031215610766578081fd5b600060a08284031215610766578081fd5b60006101008284031215610766578081fd5b600060208284031215613c31578081fd5b813567ffffffffffffffff80821115613c48578283fd5b9083019060408286031215613c5b578283fd5b604051604081018181108382111715613c7057fe5b604052823582811115613c81578485fd5b613c8d87828601613545565b82525060208301359250613ca08361432f565b6020810192909252509392505050565b600080600080600080600060e0888a031215613cca578485fd5b8751613cd58161432f565b6020890151909750613ce681614344565b9550613cf460408901613591565b9450613d0260608901613591565b9350613d1060808901613591565b925060a0880151613d2081614365565b9150613d2e60c08901613535565b905092959891949750929550565b600060208284031215613d4d578081fd5b6135dd826135a3565b600060208284031215613d67578081fd5b5035919050565b600060208284031215613d7f578081fd5b5051919050565b60008060408385031215613d98578182fd5b823591506020830135613daa8161432f565b809150509250929050565b60008060008060808587031215613dca578182fd5b843593506020850135613ddc8161432f565b92506040850135915060608501356136ec8161432f565b600080600060608486031215613e07578081fd5b833592506020840135915060408401356136458161432f565b60008060008060808587031215613e35578182fd5b8451613e4081614353565b8094505060208501518060060b8114613e57578283fd5b6040860151909350613e688161432f565b915061385860608601613535565b6001600160a01b03169052565b60008151808452613e9b816020860160208601614303565b601f01601f19169290920160200192915050565b60020b9052565b62ffffff169052565b606093841b6bffffffffffffffffffffffff19908116825260e89390931b7fffffff0000000000000000000000000000000000000000000000000000000000166014820152921b166017820152602b0190565b6000828483379101908152919050565b60008251613f34818460208701614303565b9190910192915050565b6001600160a01b0391909116815260200190565b6001600160a01b0392831681529116602082015260400190565b60006001600160a01b038088168352861515602084015285604084015280851660608401525060a06080830152613fa660a0830184613e83565b979650505050505050565b6001600160a01b03929092168252602082015260400190565b6000602080830181845280855180835260408601915060408482028701019250838701855b8281101561401d57603f1988860301845261400b858351613e83565b94509285019290850190600101613fef565b5092979650505050505050565b6000602082526135dd6020830184613e83565b602081016005831061404b57fe5b91905290565b6020808252600390820152624f4e4960e81b604082015260600190565b6020808252600390820152624e454f60e81b604082015260600190565b60208082526012908201527f546f6f206d756368207265717565737465640000000000000000000000000000604082015260600190565b602080825260029082015261151160f21b604082015260600190565b60208082526013908201527f546f6f206c6974746c6520726563656976656400000000000000000000000000604082015260600190565b600060c082019050825182526020830151602083015260408301516040830152606083015160608301526080830151608083015260a083015160a083015292915050565b60006101608201905061416d828451613e76565b602083015161417f6020840182613e76565b5060408301516141926040840182613eb6565b5060608301516141a56060840182613eaf565b5060808301516141b86080840182613eaf565b5060a083015160a083015260c083015160c083015260e083015160e0830152610100808401518184015250610120808401516141f682850182613e76565b505061014092830151919092015290565b6000602082528251604060208401526142236060840182613e83565b90506001600160a01b0360208501511660408401528091505092915050565b61ffff91909116815260200190565b90815260200190565b6000808335601e19843603018112614270578283fd5b83018035915067ffffffffffffffff82111561428a578283fd5b6020019150368190038213156134ae57600080fd5b60405181810167ffffffffffffffff811182821017156142bb57fe5b604052919050565b600067ffffffffffffffff8211156142d757fe5b5060209081020190565b600067ffffffffffffffff8211156142f557fe5b50601f01601f191660200190565b60005b8381101561431e578181015183820152602001614306565b83811115610a935750506000910152565b6001600160a01b0381168114610cb757600080fd5b8060020b8114610cb757600080fd5b63ffffffff81168114610cb757600080fd5b60ff81168114610cb757600080fdfea2646970667358221220fee4085a5caffeb5b08548c899e5ef5eb3185b52975ef715d5b962bfe154d90864736f6c63430007060033",
    "linkReferences": {},
    "deployedLinkReferences": {}
}